{
  "contracts/ConditionalVault.sol": {
    "ConditionalVault": {
      "abi": [
        {
          "anonymous": false,
          "inputs": [
            {
              "components": [
                {
                  "internalType": "address",
                  "name": "tokenAddress",
                  "type": "address"
                },
                {
                  "internalType": "address",
                  "name": "conditionOracleAddress",
                  "type": "address"
                },
                {
                  "internalType": "int256",
                  "name": "conditionOracleValue",
                  "type": "int256"
                },
                {
                  "internalType": "enum ConditionalVault.ComparisonOperator",
                  "name": "conditionOperator",
                  "type": "uint8"
                },
                {
                  "internalType": "uint256",
                  "name": "amount",
                  "type": "uint256"
                },
                {
                  "internalType": "uint256",
                  "name": "timestamp",
                  "type": "uint256"
                }
              ],
              "indexed": false,
              "internalType": "struct ConditionalVault.ConditionLockedDeposit",
              "name": "conditionLockedDeposit",
              "type": "tuple"
            }
          ],
          "name": "NewConditionLockedDeposit",
          "type": "event"
        },
        {
          "anonymous": false,
          "inputs": [
            {
              "indexed": true,
              "internalType": "address",
              "name": "previousOwner",
              "type": "address"
            },
            {
              "indexed": true,
              "internalType": "address",
              "name": "newOwner",
              "type": "address"
            }
          ],
          "name": "OwnershipTransferred",
          "type": "event"
        },
        {
          "inputs": [
            {
              "internalType": "address",
              "name": "",
              "type": "address"
            },
            {
              "internalType": "uint256",
              "name": "",
              "type": "uint256"
            }
          ],
          "name": "conditionLockedDeposits",
          "outputs": [
            {
              "internalType": "address",
              "name": "tokenAddress",
              "type": "address"
            },
            {
              "internalType": "address",
              "name": "conditionOracleAddress",
              "type": "address"
            },
            {
              "internalType": "int256",
              "name": "conditionOracleValue",
              "type": "int256"
            },
            {
              "internalType": "enum ConditionalVault.ComparisonOperator",
              "name": "conditionOperator",
              "type": "uint8"
            },
            {
              "internalType": "uint256",
              "name": "amount",
              "type": "uint256"
            },
            {
              "internalType": "uint256",
              "name": "timestamp",
              "type": "uint256"
            }
          ],
          "stateMutability": "view",
          "type": "function"
        },
        {
          "inputs": [
            {
              "internalType": "address",
              "name": "_owner",
              "type": "address"
            },
            {
              "internalType": "uint256",
              "name": "_depositIndex",
              "type": "uint256"
            }
          ],
          "name": "conditionSatisfied",
          "outputs": [
            {
              "internalType": "bool",
              "name": "",
              "type": "bool"
            }
          ],
          "stateMutability": "view",
          "type": "function"
        },
        {
          "inputs": [
            {
              "internalType": "address",
              "name": "_tokenAddress",
              "type": "address"
            },
            {
              "internalType": "address",
              "name": "_conditionOracleAddress",
              "type": "address"
            },
            {
              "internalType": "int256",
              "name": "_conditionOracleValue",
              "type": "int256"
            },
            {
              "internalType": "uint8",
              "name": "_conditionOperator",
              "type": "uint8"
            },
            {
              "internalType": "uint256",
              "name": "_amount",
              "type": "uint256"
            }
          ],
          "name": "createConditionLockedDeposit",
          "outputs": [],
          "stateMutability": "nonpayable",
          "type": "function"
        },
        {
          "inputs": [
            {
              "internalType": "address",
              "name": "_priceFeed",
              "type": "address"
            }
          ],
          "name": "getLatestRoundDataFor",
          "outputs": [
            {
              "internalType": "uint80",
              "name": "roundID",
              "type": "uint80"
            },
            {
              "internalType": "int256",
              "name": "price",
              "type": "int256"
            },
            {
              "internalType": "uint256",
              "name": "startedAt",
              "type": "uint256"
            },
            {
              "internalType": "uint256",
              "name": "updatedAt",
              "type": "uint256"
            },
            {
              "internalType": "uint80",
              "name": "answeredInRound",
              "type": "uint80"
            }
          ],
          "stateMutability": "view",
          "type": "function"
        },
        {
          "inputs": [
            {
              "internalType": "address",
              "name": "_priceFeed",
              "type": "address"
            }
          ],
          "name": "getPriceFeedInterface",
          "outputs": [
            {
              "internalType": "contract AggregatorV3Interface",
              "name": "",
              "type": "address"
            }
          ],
          "stateMutability": "pure",
          "type": "function"
        },
        {
          "inputs": [
            {
              "internalType": "address",
              "name": "_tokenAddress",
              "type": "address"
            }
          ],
          "name": "isWhitelisted",
          "outputs": [
            {
              "internalType": "bool",
              "name": "",
              "type": "bool"
            }
          ],
          "stateMutability": "view",
          "type": "function"
        },
        {
          "inputs": [],
          "name": "owner",
          "outputs": [
            {
              "internalType": "address",
              "name": "",
              "type": "address"
            }
          ],
          "stateMutability": "view",
          "type": "function"
        },
        {
          "inputs": [
            {
              "internalType": "uint256",
              "name": "_index",
              "type": "uint256"
            }
          ],
          "name": "removeFromWhitelist",
          "outputs": [],
          "stateMutability": "nonpayable",
          "type": "function"
        },
        {
          "inputs": [],
          "name": "renounceOwnership",
          "outputs": [],
          "stateMutability": "nonpayable",
          "type": "function"
        },
        {
          "inputs": [
            {
              "internalType": "uint256",
              "name": "",
              "type": "uint256"
            }
          ],
          "name": "tokenWhitelist",
          "outputs": [
            {
              "internalType": "address",
              "name": "",
              "type": "address"
            }
          ],
          "stateMutability": "view",
          "type": "function"
        },
        {
          "inputs": [
            {
              "internalType": "address",
              "name": "newOwner",
              "type": "address"
            }
          ],
          "name": "transferOwnership",
          "outputs": [],
          "stateMutability": "nonpayable",
          "type": "function"
        },
        {
          "inputs": [
            {
              "internalType": "address",
              "name": "_tokenAddress",
              "type": "address"
            }
          ],
          "name": "whitelistToken",
          "outputs": [],
          "stateMutability": "nonpayable",
          "type": "function"
        },
        {
          "inputs": [
            {
              "internalType": "uint256",
              "name": "_depositIndex",
              "type": "uint256"
            }
          ],
          "name": "withdrawConditionLockedDeposit",
          "outputs": [],
          "stateMutability": "nonpayable",
          "type": "function"
        }
      ],
      "evm": {
        "bytecode": {
          "linkReferences": {},
          "object": "608060405234801561001057600080fd5b50600080546001600160a01b031916339081178255604051909182917f8be0079c531659141344cd1fd0a4f28419497f9722a3daafe3b4186f6b6457e0908290a3506113f6806100616000396000f3fe608060405234801561001057600080fd5b50600436106100cf5760003560e01c80637e8e4a241161008c578063ea510e2111610066578063ea510e21146101d6578063f2395dc3146101fb578063f2fde38b1461020e578063f63d654614610221576100cf565b80637e8e4a24146101685780638c4b7596146101b25780638da5cb5b146101c5576100cf565b80633af32abf146100d457806350cc708b146100fc5780636247f6f21461012557806362d492841461013a578063715018a61461014d57806371dc484b14610155575b600080fd5b6100e76100e236600461112d565b610234565b60405190151581526020015b60405180910390f35b61010d61010a36600461112d565b90565b6040516001600160a01b0390911681526020016100f3565b61013861013336600461112d565b6102af565b005b61010d6101483660046111f2565b610449565b610138610473565b6101386101633660046111f2565b6104e7565b61017b61017636600461112d565b610777565b6040805169ffffffffffffffffffff968716815260208101959095528401929092526060830152909116608082015260a0016100f3565b6101386101c036600461114e565b610807565b6000546001600160a01b031661010d565b6101e96101e43660046111a9565b610bea565b6040516100f396959493929190611293565b6101386102093660046111f2565b610c4f565b61013861021c36600461112d565b610d79565b6100e761022f3660046111a9565b610e63565b6000805b6001548110156102a457826001600160a01b03166001828154811061026d57634e487b7160e01b600052603260045260246000fd5b6000918252602090912001546001600160a01b031614156102925760019150506102aa565b8061029c8161138f565b915050610238565b50600090505b919050565b6000546001600160a01b031633146102e25760405162461bcd60e51b81526004016102d9906112d3565b60405180910390fd5b6102eb81610234565b156103385760405162461bcd60e51b815260206004820152601960248201527f746f6b656e20616c72656164792077686974656c69737465640000000000000060448201526064016102d9565b6040516370a0823160e01b81523060048201526000906001600160a01b038316906370a082319060240160206040518083038186803b15801561037a57600080fd5b505afa15801561038e573d6000803e3d6000fd5b505050506040513d601f19601f820116820180604052508101906103b2919061120a565b10156103f85760405162461bcd60e51b8152602060048201526015602482015274696e76616c696420746f6b656e206164647265737360581b60448201526064016102d9565b6001805480820182556000919091527fb10e2d527612073b26eecdfd717e6a320cf44b4afac2b0732d9fcbe2b7fa0cf60180546001600160a01b0319166001600160a01b0392909216919091179055565b6001818154811061045957600080fd5b6000918252602090912001546001600160a01b0316905081565b6000546001600160a01b0316331461049d5760405162461bcd60e51b81526004016102d9906112d3565b600080546040516001600160a01b03909116907f8be0079c531659141344cd1fd0a4f28419497f9722a3daafe3b4186f6b6457e0908390a3600080546001600160a01b0319169055565b6104f13382610e63565b61053d5760405162461bcd60e51b815260206004820181905260248201527f776974686472617720636f6e646974696f6e206e6f742073617469736669656460448201526064016102d9565b33600090815260026020526040812080548390811061056c57634e487b7160e01b600052603260045260246000fd5b60009182526020918290206040805160c081018252600690930290910180546001600160a01b039081168452600182015416938301939093526002830154908201526003820154909190606083019060ff1660048111156105dd57634e487b7160e01b600052602160045260246000fd5b60048111156105fc57634e487b7160e01b600052602160045260246000fd5b815260200160048201548152602001600582015481525050905060026000336001600160a01b03166001600160a01b03168152602001908152602001600020828154811061065a57634e487b7160e01b600052603260045260246000fd5b6000918252602082206006919091020180546001600160a01b0319908116825560018201805490911690556002810182905560038101805460ff1916905560048082018390556005909101919091558151608083015160405163a9059cbb60e01b8152339381019390935260248301526001600160a01b03169063a9059cbb90604401602060405180830381600087803b1580156106f757600080fd5b505af115801561070b573d6000803e3d6000fd5b505050506040513d601f19601f8201168201806040525081019061072f91906111d2565b6107735760405162461bcd60e51b81526020600482015260156024820152741d1bdad95b881d1c985b9cd9995c8819985a5b1959605a1b60448201526064016102d9565b5050565b600080600080600080869050806001600160a01b031663feaf968c6040518163ffffffff1660e01b815260040160a06040518083038186803b1580156107bc57600080fd5b505afa1580156107d0573d6000803e3d6000fd5b505050506040513d601f19601f820116820180604052508101906107f49190611222565b939b929a50909850965090945092505050565b61081085610234565b61085c5760405162461bcd60e51b815260206004820152601960248201527f746f6b656e206973206e6f74206f6e2077686974656c6973740000000000000060448201526064016102d9565b6040516323b872dd60e01b8152336004820152306024820152604481018290526001600160a01b038616906323b872dd90606401602060405180830381600087803b1580156108aa57600080fd5b505af11580156108be573d6000803e3d6000fd5b505050506040513d601f19601f820116820180604052508101906108e291906111d2565b6109385760405162461bcd60e51b815260206004820152602160248201527f746f6b656e207472616e7366657220746f20636f6e7472616374206661696c656044820152601960fa1b60648201526084016102d9565b60026000336001600160a01b03166001600160a01b031681526020019081526020016000206040518060c00160405280876001600160a01b03168152602001866001600160a01b031681526020018581526020018460ff1660048111156109af57634e487b7160e01b600052602160045260246000fd5b60048111156109ce57634e487b7160e01b600052602160045260246000fd5b8152602080820185905242604092830152835460018181018655600095865294829020845160069092020180546001600160a01b039283166001600160a01b03199182161782559285015181870180549190931693169290921790559082015160028201556060820151600382018054939492939192909160ff191690836004811115610a6b57634e487b7160e01b600052602160045260246000fd5b02179055506080820151600482015560a09091015160059091015533600090815260026020908152604080832080548251818502810185019093528083529192909190849084015b82821015610b715760008481526020908190206040805160c0810182526006860290920180546001600160a01b039081168452600182015416938301939093526002830154908201526003820154909190606083019060ff166004811115610b2b57634e487b7160e01b600052602160045260246000fd5b6004811115610b4a57634e487b7160e01b600052602160045260246000fd5b81526020016004820154815260200160058201548152505081526020019060010190610ab3565b5050505090507fac9e6a809f911fb6291c5657eb54f815e5323b627fc3e9d696601a1c5b5731a88160018351610ba79190611378565b81518110610bc557634e487b7160e01b600052603260045260246000fd5b6020026020010151604051610bda9190611308565b60405180910390a1505050505050565b60026020528160005260406000208181548110610c0657600080fd5b60009182526020909120600690910201805460018201546002830154600384015460048501546005909501546001600160a01b0394851697509390921694509260ff9091169186565b6000546001600160a01b03163314610c795760405162461bcd60e51b81526004016102d9906112d3565b805b60018054610c899190611378565b811015610d2f576001610c9c8282611360565b81548110610cba57634e487b7160e01b600052603260045260246000fd5b600091825260209091200154600180546001600160a01b039092169183908110610cf457634e487b7160e01b600052603260045260246000fd5b600091825260209091200180546001600160a01b0319166001600160a01b039290921691909117905580610d278161138f565b915050610c7b565b5060018054610d3f908290611378565b81548110610d5d57634e487b7160e01b600052603260045260246000fd5b600091825260209091200180546001600160a01b031916905550565b6000546001600160a01b03163314610da35760405162461bcd60e51b81526004016102d9906112d3565b6001600160a01b038116610e085760405162461bcd60e51b815260206004820152602660248201527f4f776e61626c653a206e6577206f776e657220697320746865207a65726f206160448201526564647265737360d01b60648201526084016102d9565b600080546040516001600160a01b03808516939216917f8be0079c531659141344cd1fd0a4f28419497f9722a3daafe3b4186f6b6457e091a3600080546001600160a01b0319166001600160a01b0392909216919091179055565b6001600160a01b0382166000908152600260205260408120805482919084908110610e9e57634e487b7160e01b600052603260045260246000fd5b60009182526020918290206040805160c081018252600690930290910180546001600160a01b039081168452600182015416938301939093526002830154908201526003820154909190606083019060ff166004811115610f0f57634e487b7160e01b600052602160045260246000fd5b6004811115610f2e57634e487b7160e01b600052602160045260246000fd5b81526020016004820154815260200160058201548152505090506000610f578260200151610777565b5050509150506000806004811115610f7f57634e487b7160e01b600052602160045260246000fd5b83606001516004811115610fa357634e487b7160e01b600052602160045260246000fd5b1415610fb65750604082015181136110f3565b600283606001516004811115610fdc57634e487b7160e01b600052602160045260246000fd5b1415610fef5750604082015181126110f3565b60018360600151600481111561101557634e487b7160e01b600052602160045260246000fd5b1415611029575060408201518112156110f3565b60038360600151600481111561104f57634e487b7160e01b600052602160045260246000fd5b1415611063575060408201518113156110f3565b60048360600151600481111561108957634e487b7160e01b600052602160045260246000fd5b141561109c5750604082015181146110f3565b60405162461bcd60e51b815260206004820152602660248201527f696e76616c696420636f6d70617269736f6e206f70657261746f7220696e2064604482015265195c1bdcda5d60d21b60648201526084016102d9565b95945050505050565b80356001600160a01b03811681146102aa57600080fd5b805169ffffffffffffffffffff811681146102aa57600080fd5b60006020828403121561113e578081fd5b611147826110fc565b9392505050565b600080600080600060a08688031215611165578081fd5b61116e866110fc565b945061117c602087016110fc565b935060408601359250606086013560ff81168114611198578182fd5b949793965091946080013592915050565b600080604083850312156111bb578182fd5b6111c4836110fc565b946020939093013593505050565b6000602082840312156111e3578081fd5b81518015158114611147578182fd5b600060208284031215611203578081fd5b5035919050565b60006020828403121561121b578081fd5b5051919050565b600080600080600060a08688031215611239578081fd5b61124286611113565b945060208601519350604086015192506060860151915061126560808701611113565b90509295509295909350565b6005811061128f57634e487b7160e01b600052602160045260246000fd5b9052565b6001600160a01b038781168252861660208201526040810185905260c081016112bf6060830186611271565b608082019390935260a00152949350505050565b6020808252818101527f4f776e61626c653a2063616c6c6572206973206e6f7420746865206f776e6572604082015260600190565b81516001600160a01b039081168252602080840151909116908201526040808301519082015260608083015160c083019161134590840182611271565b506080830151608083015260a083015160a083015292915050565b60008219821115611373576113736113aa565b500190565b60008282101561138a5761138a6113aa565b500390565b60006000198214156113a3576113a36113aa565b5060010190565b634e487b7160e01b600052601160045260246000fdfea264697066735822122095895e36705a92bde2bfa026ca4c00dedc2b57b60e8d19d64805355e4869716f64736f6c63430008030033",
          "opcodes": "PUSH1 0x80 PUSH1 0x40 MSTORE CALLVALUE DUP1 ISZERO PUSH2 0x10 JUMPI PUSH1 0x0 DUP1 REVERT JUMPDEST POP PUSH1 0x0 DUP1 SLOAD PUSH1 0x1 PUSH1 0x1 PUSH1 0xA0 SHL SUB NOT AND CALLER SWAP1 DUP2 OR DUP3 SSTORE PUSH1 0x40 MLOAD SWAP1 SWAP2 DUP3 SWAP2 PUSH32 0x8BE0079C531659141344CD1FD0A4F28419497F9722A3DAAFE3B4186F6B6457E0 SWAP1 DUP3 SWAP1 LOG3 POP PUSH2 0x13F6 DUP1 PUSH2 0x61 PUSH1 0x0 CODECOPY PUSH1 0x0 RETURN INVALID PUSH1 0x80 PUSH1 0x40 MSTORE CALLVALUE DUP1 ISZERO PUSH2 0x10 JUMPI PUSH1 0x0 DUP1 REVERT JUMPDEST POP PUSH1 0x4 CALLDATASIZE LT PUSH2 0xCF JUMPI PUSH1 0x0 CALLDATALOAD PUSH1 0xE0 SHR DUP1 PUSH4 0x7E8E4A24 GT PUSH2 0x8C JUMPI DUP1 PUSH4 0xEA510E21 GT PUSH2 0x66 JUMPI DUP1 PUSH4 0xEA510E21 EQ PUSH2 0x1D6 JUMPI DUP1 PUSH4 0xF2395DC3 EQ PUSH2 0x1FB JUMPI DUP1 PUSH4 0xF2FDE38B EQ PUSH2 0x20E JUMPI DUP1 PUSH4 0xF63D6546 EQ PUSH2 0x221 JUMPI PUSH2 0xCF JUMP JUMPDEST DUP1 PUSH4 0x7E8E4A24 EQ PUSH2 0x168 JUMPI DUP1 PUSH4 0x8C4B7596 EQ PUSH2 0x1B2 JUMPI DUP1 PUSH4 0x8DA5CB5B EQ PUSH2 0x1C5 JUMPI PUSH2 0xCF JUMP JUMPDEST DUP1 PUSH4 0x3AF32ABF EQ PUSH2 0xD4 JUMPI DUP1 PUSH4 0x50CC708B EQ PUSH2 0xFC JUMPI DUP1 PUSH4 0x6247F6F2 EQ PUSH2 0x125 JUMPI DUP1 PUSH4 0x62D49284 EQ PUSH2 0x13A JUMPI DUP1 PUSH4 0x715018A6 EQ PUSH2 0x14D JUMPI DUP1 PUSH4 0x71DC484B EQ PUSH2 0x155 JUMPI JUMPDEST PUSH1 0x0 DUP1 REVERT JUMPDEST PUSH2 0xE7 PUSH2 0xE2 CALLDATASIZE PUSH1 0x4 PUSH2 0x112D JUMP JUMPDEST PUSH2 0x234 JUMP JUMPDEST PUSH1 0x40 MLOAD SWAP1 ISZERO ISZERO DUP2 MSTORE PUSH1 0x20 ADD JUMPDEST PUSH1 0x40 MLOAD DUP1 SWAP2 SUB SWAP1 RETURN JUMPDEST PUSH2 0x10D PUSH2 0x10A CALLDATASIZE PUSH1 0x4 PUSH2 0x112D JUMP JUMPDEST SWAP1 JUMP JUMPDEST PUSH1 0x40 MLOAD PUSH1 0x1 PUSH1 0x1 PUSH1 0xA0 SHL SUB SWAP1 SWAP2 AND DUP2 MSTORE PUSH1 0x20 ADD PUSH2 0xF3 JUMP JUMPDEST PUSH2 0x138 PUSH2 0x133 CALLDATASIZE PUSH1 0x4 PUSH2 0x112D JUMP JUMPDEST PUSH2 0x2AF JUMP JUMPDEST STOP JUMPDEST PUSH2 0x10D PUSH2 0x148 CALLDATASIZE PUSH1 0x4 PUSH2 0x11F2 JUMP JUMPDEST PUSH2 0x449 JUMP JUMPDEST PUSH2 0x138 PUSH2 0x473 JUMP JUMPDEST PUSH2 0x138 PUSH2 0x163 CALLDATASIZE PUSH1 0x4 PUSH2 0x11F2 JUMP JUMPDEST PUSH2 0x4E7 JUMP JUMPDEST PUSH2 0x17B PUSH2 0x176 CALLDATASIZE PUSH1 0x4 PUSH2 0x112D JUMP JUMPDEST PUSH2 0x777 JUMP JUMPDEST PUSH1 0x40 DUP1 MLOAD PUSH10 0xFFFFFFFFFFFFFFFFFFFF SWAP7 DUP8 AND DUP2 MSTORE PUSH1 0x20 DUP2 ADD SWAP6 SWAP1 SWAP6 MSTORE DUP5 ADD SWAP3 SWAP1 SWAP3 MSTORE PUSH1 0x60 DUP4 ADD MSTORE SWAP1 SWAP2 AND PUSH1 0x80 DUP3 ADD MSTORE PUSH1 0xA0 ADD PUSH2 0xF3 JUMP JUMPDEST PUSH2 0x138 PUSH2 0x1C0 CALLDATASIZE PUSH1 0x4 PUSH2 0x114E JUMP JUMPDEST PUSH2 0x807 JUMP JUMPDEST PUSH1 0x0 SLOAD PUSH1 0x1 PUSH1 0x1 PUSH1 0xA0 SHL SUB AND PUSH2 0x10D JUMP JUMPDEST PUSH2 0x1E9 PUSH2 0x1E4 CALLDATASIZE PUSH1 0x4 PUSH2 0x11A9 JUMP JUMPDEST PUSH2 0xBEA JUMP JUMPDEST PUSH1 0x40 MLOAD PUSH2 0xF3 SWAP7 SWAP6 SWAP5 SWAP4 SWAP3 SWAP2 SWAP1 PUSH2 0x1293 JUMP JUMPDEST PUSH2 0x138 PUSH2 0x209 CALLDATASIZE PUSH1 0x4 PUSH2 0x11F2 JUMP JUMPDEST PUSH2 0xC4F JUMP JUMPDEST PUSH2 0x138 PUSH2 0x21C CALLDATASIZE PUSH1 0x4 PUSH2 0x112D JUMP JUMPDEST PUSH2 0xD79 JUMP JUMPDEST PUSH2 0xE7 PUSH2 0x22F CALLDATASIZE PUSH1 0x4 PUSH2 0x11A9 JUMP JUMPDEST PUSH2 0xE63 JUMP JUMPDEST PUSH1 0x0 DUP1 JUMPDEST PUSH1 0x1 SLOAD DUP2 LT ISZERO PUSH2 0x2A4 JUMPI DUP3 PUSH1 0x1 PUSH1 0x1 PUSH1 0xA0 SHL SUB AND PUSH1 0x1 DUP3 DUP2 SLOAD DUP2 LT PUSH2 0x26D JUMPI PUSH4 0x4E487B71 PUSH1 0xE0 SHL PUSH1 0x0 MSTORE PUSH1 0x32 PUSH1 0x4 MSTORE PUSH1 0x24 PUSH1 0x0 REVERT JUMPDEST PUSH1 0x0 SWAP2 DUP3 MSTORE PUSH1 0x20 SWAP1 SWAP2 KECCAK256 ADD SLOAD PUSH1 0x1 PUSH1 0x1 PUSH1 0xA0 SHL SUB AND EQ ISZERO PUSH2 0x292 JUMPI PUSH1 0x1 SWAP2 POP POP PUSH2 0x2AA JUMP JUMPDEST DUP1 PUSH2 0x29C DUP2 PUSH2 0x138F JUMP JUMPDEST SWAP2 POP POP PUSH2 0x238 JUMP JUMPDEST POP PUSH1 0x0 SWAP1 POP JUMPDEST SWAP2 SWAP1 POP JUMP JUMPDEST PUSH1 0x0 SLOAD PUSH1 0x1 PUSH1 0x1 PUSH1 0xA0 SHL SUB AND CALLER EQ PUSH2 0x2E2 JUMPI PUSH1 0x40 MLOAD PUSH3 0x461BCD PUSH1 0xE5 SHL DUP2 MSTORE PUSH1 0x4 ADD PUSH2 0x2D9 SWAP1 PUSH2 0x12D3 JUMP JUMPDEST PUSH1 0x40 MLOAD DUP1 SWAP2 SUB SWAP1 REVERT JUMPDEST PUSH2 0x2EB DUP2 PUSH2 0x234 JUMP JUMPDEST ISZERO PUSH2 0x338 JUMPI PUSH1 0x40 MLOAD PUSH3 0x461BCD PUSH1 0xE5 SHL DUP2 MSTORE PUSH1 0x20 PUSH1 0x4 DUP3 ADD MSTORE PUSH1 0x19 PUSH1 0x24 DUP3 ADD MSTORE PUSH32 0x746F6B656E20616C72656164792077686974656C697374656400000000000000 PUSH1 0x44 DUP3 ADD MSTORE PUSH1 0x64 ADD PUSH2 0x2D9 JUMP JUMPDEST PUSH1 0x40 MLOAD PUSH4 0x70A08231 PUSH1 0xE0 SHL DUP2 MSTORE ADDRESS PUSH1 0x4 DUP3 ADD MSTORE PUSH1 0x0 SWAP1 PUSH1 0x1 PUSH1 0x1 PUSH1 0xA0 SHL SUB DUP4 AND SWAP1 PUSH4 0x70A08231 SWAP1 PUSH1 0x24 ADD PUSH1 0x20 PUSH1 0x40 MLOAD DUP1 DUP4 SUB DUP2 DUP7 DUP1 EXTCODESIZE ISZERO DUP1 ISZERO PUSH2 0x37A JUMPI PUSH1 0x0 DUP1 REVERT JUMPDEST POP GAS STATICCALL ISZERO DUP1 ISZERO PUSH2 0x38E JUMPI RETURNDATASIZE PUSH1 0x0 DUP1 RETURNDATACOPY RETURNDATASIZE PUSH1 0x0 REVERT JUMPDEST POP POP POP POP PUSH1 0x40 MLOAD RETURNDATASIZE PUSH1 0x1F NOT PUSH1 0x1F DUP3 ADD AND DUP3 ADD DUP1 PUSH1 0x40 MSTORE POP DUP2 ADD SWAP1 PUSH2 0x3B2 SWAP2 SWAP1 PUSH2 0x120A JUMP JUMPDEST LT ISZERO PUSH2 0x3F8 JUMPI PUSH1 0x40 MLOAD PUSH3 0x461BCD PUSH1 0xE5 SHL DUP2 MSTORE PUSH1 0x20 PUSH1 0x4 DUP3 ADD MSTORE PUSH1 0x15 PUSH1 0x24 DUP3 ADD MSTORE PUSH21 0x696E76616C696420746F6B656E2061646472657373 PUSH1 0x58 SHL PUSH1 0x44 DUP3 ADD MSTORE PUSH1 0x64 ADD PUSH2 0x2D9 JUMP JUMPDEST PUSH1 0x1 DUP1 SLOAD DUP1 DUP3 ADD DUP3 SSTORE PUSH1 0x0 SWAP2 SWAP1 SWAP2 MSTORE PUSH32 0xB10E2D527612073B26EECDFD717E6A320CF44B4AFAC2B0732D9FCBE2B7FA0CF6 ADD DUP1 SLOAD PUSH1 0x1 PUSH1 0x1 PUSH1 0xA0 SHL SUB NOT AND PUSH1 0x1 PUSH1 0x1 PUSH1 0xA0 SHL SUB SWAP3 SWAP1 SWAP3 AND SWAP2 SWAP1 SWAP2 OR SWAP1 SSTORE JUMP JUMPDEST PUSH1 0x1 DUP2 DUP2 SLOAD DUP2 LT PUSH2 0x459 JUMPI PUSH1 0x0 DUP1 REVERT JUMPDEST PUSH1 0x0 SWAP2 DUP3 MSTORE PUSH1 0x20 SWAP1 SWAP2 KECCAK256 ADD SLOAD PUSH1 0x1 PUSH1 0x1 PUSH1 0xA0 SHL SUB AND SWAP1 POP DUP2 JUMP JUMPDEST PUSH1 0x0 SLOAD PUSH1 0x1 PUSH1 0x1 PUSH1 0xA0 SHL SUB AND CALLER EQ PUSH2 0x49D JUMPI PUSH1 0x40 MLOAD PUSH3 0x461BCD PUSH1 0xE5 SHL DUP2 MSTORE PUSH1 0x4 ADD PUSH2 0x2D9 SWAP1 PUSH2 0x12D3 JUMP JUMPDEST PUSH1 0x0 DUP1 SLOAD PUSH1 0x40 MLOAD PUSH1 0x1 PUSH1 0x1 PUSH1 0xA0 SHL SUB SWAP1 SWAP2 AND SWAP1 PUSH32 0x8BE0079C531659141344CD1FD0A4F28419497F9722A3DAAFE3B4186F6B6457E0 SWAP1 DUP4 SWAP1 LOG3 PUSH1 0x0 DUP1 SLOAD PUSH1 0x1 PUSH1 0x1 PUSH1 0xA0 SHL SUB NOT AND SWAP1 SSTORE JUMP JUMPDEST PUSH2 0x4F1 CALLER DUP3 PUSH2 0xE63 JUMP JUMPDEST PUSH2 0x53D JUMPI PUSH1 0x40 MLOAD PUSH3 0x461BCD PUSH1 0xE5 SHL DUP2 MSTORE PUSH1 0x20 PUSH1 0x4 DUP3 ADD DUP2 SWAP1 MSTORE PUSH1 0x24 DUP3 ADD MSTORE PUSH32 0x776974686472617720636F6E646974696F6E206E6F7420736174697366696564 PUSH1 0x44 DUP3 ADD MSTORE PUSH1 0x64 ADD PUSH2 0x2D9 JUMP JUMPDEST CALLER PUSH1 0x0 SWAP1 DUP2 MSTORE PUSH1 0x2 PUSH1 0x20 MSTORE PUSH1 0x40 DUP2 KECCAK256 DUP1 SLOAD DUP4 SWAP1 DUP2 LT PUSH2 0x56C JUMPI PUSH4 0x4E487B71 PUSH1 0xE0 SHL PUSH1 0x0 MSTORE PUSH1 0x32 PUSH1 0x4 MSTORE PUSH1 0x24 PUSH1 0x0 REVERT JUMPDEST PUSH1 0x0 SWAP2 DUP3 MSTORE PUSH1 0x20 SWAP2 DUP3 SWAP1 KECCAK256 PUSH1 0x40 DUP1 MLOAD PUSH1 0xC0 DUP2 ADD DUP3 MSTORE PUSH1 0x6 SWAP1 SWAP4 MUL SWAP1 SWAP2 ADD DUP1 SLOAD PUSH1 0x1 PUSH1 0x1 PUSH1 0xA0 SHL SUB SWAP1 DUP2 AND DUP5 MSTORE PUSH1 0x1 DUP3 ADD SLOAD AND SWAP4 DUP4 ADD SWAP4 SWAP1 SWAP4 MSTORE PUSH1 0x2 DUP4 ADD SLOAD SWAP1 DUP3 ADD MSTORE PUSH1 0x3 DUP3 ADD SLOAD SWAP1 SWAP2 SWAP1 PUSH1 0x60 DUP4 ADD SWAP1 PUSH1 0xFF AND PUSH1 0x4 DUP2 GT ISZERO PUSH2 0x5DD JUMPI PUSH4 0x4E487B71 PUSH1 0xE0 SHL PUSH1 0x0 MSTORE PUSH1 0x21 PUSH1 0x4 MSTORE PUSH1 0x24 PUSH1 0x0 REVERT JUMPDEST PUSH1 0x4 DUP2 GT ISZERO PUSH2 0x5FC JUMPI PUSH4 0x4E487B71 PUSH1 0xE0 SHL PUSH1 0x0 MSTORE PUSH1 0x21 PUSH1 0x4 MSTORE PUSH1 0x24 PUSH1 0x0 REVERT JUMPDEST DUP2 MSTORE PUSH1 0x20 ADD PUSH1 0x4 DUP3 ADD SLOAD DUP2 MSTORE PUSH1 0x20 ADD PUSH1 0x5 DUP3 ADD SLOAD DUP2 MSTORE POP POP SWAP1 POP PUSH1 0x2 PUSH1 0x0 CALLER PUSH1 0x1 PUSH1 0x1 PUSH1 0xA0 SHL SUB AND PUSH1 0x1 PUSH1 0x1 PUSH1 0xA0 SHL SUB AND DUP2 MSTORE PUSH1 0x20 ADD SWAP1 DUP2 MSTORE PUSH1 0x20 ADD PUSH1 0x0 KECCAK256 DUP3 DUP2 SLOAD DUP2 LT PUSH2 0x65A JUMPI PUSH4 0x4E487B71 PUSH1 0xE0 SHL PUSH1 0x0 MSTORE PUSH1 0x32 PUSH1 0x4 MSTORE PUSH1 0x24 PUSH1 0x0 REVERT JUMPDEST PUSH1 0x0 SWAP2 DUP3 MSTORE PUSH1 0x20 DUP3 KECCAK256 PUSH1 0x6 SWAP2 SWAP1 SWAP2 MUL ADD DUP1 SLOAD PUSH1 0x1 PUSH1 0x1 PUSH1 0xA0 SHL SUB NOT SWAP1 DUP2 AND DUP3 SSTORE PUSH1 0x1 DUP3 ADD DUP1 SLOAD SWAP1 SWAP2 AND SWAP1 SSTORE PUSH1 0x2 DUP2 ADD DUP3 SWAP1 SSTORE PUSH1 0x3 DUP2 ADD DUP1 SLOAD PUSH1 0xFF NOT AND SWAP1 SSTORE PUSH1 0x4 DUP1 DUP3 ADD DUP4 SWAP1 SSTORE PUSH1 0x5 SWAP1 SWAP2 ADD SWAP2 SWAP1 SWAP2 SSTORE DUP2 MLOAD PUSH1 0x80 DUP4 ADD MLOAD PUSH1 0x40 MLOAD PUSH4 0xA9059CBB PUSH1 0xE0 SHL DUP2 MSTORE CALLER SWAP4 DUP2 ADD SWAP4 SWAP1 SWAP4 MSTORE PUSH1 0x24 DUP4 ADD MSTORE PUSH1 0x1 PUSH1 0x1 PUSH1 0xA0 SHL SUB AND SWAP1 PUSH4 0xA9059CBB SWAP1 PUSH1 0x44 ADD PUSH1 0x20 PUSH1 0x40 MLOAD DUP1 DUP4 SUB DUP2 PUSH1 0x0 DUP8 DUP1 EXTCODESIZE ISZERO DUP1 ISZERO PUSH2 0x6F7 JUMPI PUSH1 0x0 DUP1 REVERT JUMPDEST POP GAS CALL ISZERO DUP1 ISZERO PUSH2 0x70B JUMPI RETURNDATASIZE PUSH1 0x0 DUP1 RETURNDATACOPY RETURNDATASIZE PUSH1 0x0 REVERT JUMPDEST POP POP POP POP PUSH1 0x40 MLOAD RETURNDATASIZE PUSH1 0x1F NOT PUSH1 0x1F DUP3 ADD AND DUP3 ADD DUP1 PUSH1 0x40 MSTORE POP DUP2 ADD SWAP1 PUSH2 0x72F SWAP2 SWAP1 PUSH2 0x11D2 JUMP JUMPDEST PUSH2 0x773 JUMPI PUSH1 0x40 MLOAD PUSH3 0x461BCD PUSH1 0xE5 SHL DUP2 MSTORE PUSH1 0x20 PUSH1 0x4 DUP3 ADD MSTORE PUSH1 0x15 PUSH1 0x24 DUP3 ADD MSTORE PUSH21 0x1D1BDAD95B881D1C985B9CD9995C8819985A5B1959 PUSH1 0x5A SHL PUSH1 0x44 DUP3 ADD MSTORE PUSH1 0x64 ADD PUSH2 0x2D9 JUMP JUMPDEST POP POP JUMP JUMPDEST PUSH1 0x0 DUP1 PUSH1 0x0 DUP1 PUSH1 0x0 DUP1 DUP7 SWAP1 POP DUP1 PUSH1 0x1 PUSH1 0x1 PUSH1 0xA0 SHL SUB AND PUSH4 0xFEAF968C PUSH1 0x40 MLOAD DUP2 PUSH4 0xFFFFFFFF AND PUSH1 0xE0 SHL DUP2 MSTORE PUSH1 0x4 ADD PUSH1 0xA0 PUSH1 0x40 MLOAD DUP1 DUP4 SUB DUP2 DUP7 DUP1 EXTCODESIZE ISZERO DUP1 ISZERO PUSH2 0x7BC JUMPI PUSH1 0x0 DUP1 REVERT JUMPDEST POP GAS STATICCALL ISZERO DUP1 ISZERO PUSH2 0x7D0 JUMPI RETURNDATASIZE PUSH1 0x0 DUP1 RETURNDATACOPY RETURNDATASIZE PUSH1 0x0 REVERT JUMPDEST POP POP POP POP PUSH1 0x40 MLOAD RETURNDATASIZE PUSH1 0x1F NOT PUSH1 0x1F DUP3 ADD AND DUP3 ADD DUP1 PUSH1 0x40 MSTORE POP DUP2 ADD SWAP1 PUSH2 0x7F4 SWAP2 SWAP1 PUSH2 0x1222 JUMP JUMPDEST SWAP4 SWAP12 SWAP3 SWAP11 POP SWAP1 SWAP9 POP SWAP7 POP SWAP1 SWAP5 POP SWAP3 POP POP POP JUMP JUMPDEST PUSH2 0x810 DUP6 PUSH2 0x234 JUMP JUMPDEST PUSH2 0x85C JUMPI PUSH1 0x40 MLOAD PUSH3 0x461BCD PUSH1 0xE5 SHL DUP2 MSTORE PUSH1 0x20 PUSH1 0x4 DUP3 ADD MSTORE PUSH1 0x19 PUSH1 0x24 DUP3 ADD MSTORE PUSH32 0x746F6B656E206973206E6F74206F6E2077686974656C69737400000000000000 PUSH1 0x44 DUP3 ADD MSTORE PUSH1 0x64 ADD PUSH2 0x2D9 JUMP JUMPDEST PUSH1 0x40 MLOAD PUSH4 0x23B872DD PUSH1 0xE0 SHL DUP2 MSTORE CALLER PUSH1 0x4 DUP3 ADD MSTORE ADDRESS PUSH1 0x24 DUP3 ADD MSTORE PUSH1 0x44 DUP2 ADD DUP3 SWAP1 MSTORE PUSH1 0x1 PUSH1 0x1 PUSH1 0xA0 SHL SUB DUP7 AND SWAP1 PUSH4 0x23B872DD SWAP1 PUSH1 0x64 ADD PUSH1 0x20 PUSH1 0x40 MLOAD DUP1 DUP4 SUB DUP2 PUSH1 0x0 DUP8 DUP1 EXTCODESIZE ISZERO DUP1 ISZERO PUSH2 0x8AA JUMPI PUSH1 0x0 DUP1 REVERT JUMPDEST POP GAS CALL ISZERO DUP1 ISZERO PUSH2 0x8BE JUMPI RETURNDATASIZE PUSH1 0x0 DUP1 RETURNDATACOPY RETURNDATASIZE PUSH1 0x0 REVERT JUMPDEST POP POP POP POP PUSH1 0x40 MLOAD RETURNDATASIZE PUSH1 0x1F NOT PUSH1 0x1F DUP3 ADD AND DUP3 ADD DUP1 PUSH1 0x40 MSTORE POP DUP2 ADD SWAP1 PUSH2 0x8E2 SWAP2 SWAP1 PUSH2 0x11D2 JUMP JUMPDEST PUSH2 0x938 JUMPI PUSH1 0x40 MLOAD PUSH3 0x461BCD PUSH1 0xE5 SHL DUP2 MSTORE PUSH1 0x20 PUSH1 0x4 DUP3 ADD MSTORE PUSH1 0x21 PUSH1 0x24 DUP3 ADD MSTORE PUSH32 0x746F6B656E207472616E7366657220746F20636F6E7472616374206661696C65 PUSH1 0x44 DUP3 ADD MSTORE PUSH1 0x19 PUSH1 0xFA SHL PUSH1 0x64 DUP3 ADD MSTORE PUSH1 0x84 ADD PUSH2 0x2D9 JUMP JUMPDEST PUSH1 0x2 PUSH1 0x0 CALLER PUSH1 0x1 PUSH1 0x1 PUSH1 0xA0 SHL SUB AND PUSH1 0x1 PUSH1 0x1 PUSH1 0xA0 SHL SUB AND DUP2 MSTORE PUSH1 0x20 ADD SWAP1 DUP2 MSTORE PUSH1 0x20 ADD PUSH1 0x0 KECCAK256 PUSH1 0x40 MLOAD DUP1 PUSH1 0xC0 ADD PUSH1 0x40 MSTORE DUP1 DUP8 PUSH1 0x1 PUSH1 0x1 PUSH1 0xA0 SHL SUB AND DUP2 MSTORE PUSH1 0x20 ADD DUP7 PUSH1 0x1 PUSH1 0x1 PUSH1 0xA0 SHL SUB AND DUP2 MSTORE PUSH1 0x20 ADD DUP6 DUP2 MSTORE PUSH1 0x20 ADD DUP5 PUSH1 0xFF AND PUSH1 0x4 DUP2 GT ISZERO PUSH2 0x9AF JUMPI PUSH4 0x4E487B71 PUSH1 0xE0 SHL PUSH1 0x0 MSTORE PUSH1 0x21 PUSH1 0x4 MSTORE PUSH1 0x24 PUSH1 0x0 REVERT JUMPDEST PUSH1 0x4 DUP2 GT ISZERO PUSH2 0x9CE JUMPI PUSH4 0x4E487B71 PUSH1 0xE0 SHL PUSH1 0x0 MSTORE PUSH1 0x21 PUSH1 0x4 MSTORE PUSH1 0x24 PUSH1 0x0 REVERT JUMPDEST DUP2 MSTORE PUSH1 0x20 DUP1 DUP3 ADD DUP6 SWAP1 MSTORE TIMESTAMP PUSH1 0x40 SWAP3 DUP4 ADD MSTORE DUP4 SLOAD PUSH1 0x1 DUP2 DUP2 ADD DUP7 SSTORE PUSH1 0x0 SWAP6 DUP7 MSTORE SWAP5 DUP3 SWAP1 KECCAK256 DUP5 MLOAD PUSH1 0x6 SWAP1 SWAP3 MUL ADD DUP1 SLOAD PUSH1 0x1 PUSH1 0x1 PUSH1 0xA0 SHL SUB SWAP3 DUP4 AND PUSH1 0x1 PUSH1 0x1 PUSH1 0xA0 SHL SUB NOT SWAP2 DUP3 AND OR DUP3 SSTORE SWAP3 DUP6 ADD MLOAD DUP2 DUP8 ADD DUP1 SLOAD SWAP2 SWAP1 SWAP4 AND SWAP4 AND SWAP3 SWAP1 SWAP3 OR SWAP1 SSTORE SWAP1 DUP3 ADD MLOAD PUSH1 0x2 DUP3 ADD SSTORE PUSH1 0x60 DUP3 ADD MLOAD PUSH1 0x3 DUP3 ADD DUP1 SLOAD SWAP4 SWAP5 SWAP3 SWAP4 SWAP2 SWAP3 SWAP1 SWAP2 PUSH1 0xFF NOT AND SWAP1 DUP4 PUSH1 0x4 DUP2 GT ISZERO PUSH2 0xA6B JUMPI PUSH4 0x4E487B71 PUSH1 0xE0 SHL PUSH1 0x0 MSTORE PUSH1 0x21 PUSH1 0x4 MSTORE PUSH1 0x24 PUSH1 0x0 REVERT JUMPDEST MUL OR SWAP1 SSTORE POP PUSH1 0x80 DUP3 ADD MLOAD PUSH1 0x4 DUP3 ADD SSTORE PUSH1 0xA0 SWAP1 SWAP2 ADD MLOAD PUSH1 0x5 SWAP1 SWAP2 ADD SSTORE CALLER PUSH1 0x0 SWAP1 DUP2 MSTORE PUSH1 0x2 PUSH1 0x20 SWAP1 DUP2 MSTORE PUSH1 0x40 DUP1 DUP4 KECCAK256 DUP1 SLOAD DUP3 MLOAD DUP2 DUP6 MUL DUP2 ADD DUP6 ADD SWAP1 SWAP4 MSTORE DUP1 DUP4 MSTORE SWAP2 SWAP3 SWAP1 SWAP2 SWAP1 DUP5 SWAP1 DUP5 ADD JUMPDEST DUP3 DUP3 LT ISZERO PUSH2 0xB71 JUMPI PUSH1 0x0 DUP5 DUP2 MSTORE PUSH1 0x20 SWAP1 DUP2 SWAP1 KECCAK256 PUSH1 0x40 DUP1 MLOAD PUSH1 0xC0 DUP2 ADD DUP3 MSTORE PUSH1 0x6 DUP7 MUL SWAP1 SWAP3 ADD DUP1 SLOAD PUSH1 0x1 PUSH1 0x1 PUSH1 0xA0 SHL SUB SWAP1 DUP2 AND DUP5 MSTORE PUSH1 0x1 DUP3 ADD SLOAD AND SWAP4 DUP4 ADD SWAP4 SWAP1 SWAP4 MSTORE PUSH1 0x2 DUP4 ADD SLOAD SWAP1 DUP3 ADD MSTORE PUSH1 0x3 DUP3 ADD SLOAD SWAP1 SWAP2 SWAP1 PUSH1 0x60 DUP4 ADD SWAP1 PUSH1 0xFF AND PUSH1 0x4 DUP2 GT ISZERO PUSH2 0xB2B JUMPI PUSH4 0x4E487B71 PUSH1 0xE0 SHL PUSH1 0x0 MSTORE PUSH1 0x21 PUSH1 0x4 MSTORE PUSH1 0x24 PUSH1 0x0 REVERT JUMPDEST PUSH1 0x4 DUP2 GT ISZERO PUSH2 0xB4A JUMPI PUSH4 0x4E487B71 PUSH1 0xE0 SHL PUSH1 0x0 MSTORE PUSH1 0x21 PUSH1 0x4 MSTORE PUSH1 0x24 PUSH1 0x0 REVERT JUMPDEST DUP2 MSTORE PUSH1 0x20 ADD PUSH1 0x4 DUP3 ADD SLOAD DUP2 MSTORE PUSH1 0x20 ADD PUSH1 0x5 DUP3 ADD SLOAD DUP2 MSTORE POP POP DUP2 MSTORE PUSH1 0x20 ADD SWAP1 PUSH1 0x1 ADD SWAP1 PUSH2 0xAB3 JUMP JUMPDEST POP POP POP POP SWAP1 POP PUSH32 0xAC9E6A809F911FB6291C5657EB54F815E5323B627FC3E9D696601A1C5B5731A8 DUP2 PUSH1 0x1 DUP4 MLOAD PUSH2 0xBA7 SWAP2 SWAP1 PUSH2 0x1378 JUMP JUMPDEST DUP2 MLOAD DUP2 LT PUSH2 0xBC5 JUMPI PUSH4 0x4E487B71 PUSH1 0xE0 SHL PUSH1 0x0 MSTORE PUSH1 0x32 PUSH1 0x4 MSTORE PUSH1 0x24 PUSH1 0x0 REVERT JUMPDEST PUSH1 0x20 MUL PUSH1 0x20 ADD ADD MLOAD PUSH1 0x40 MLOAD PUSH2 0xBDA SWAP2 SWAP1 PUSH2 0x1308 JUMP JUMPDEST PUSH1 0x40 MLOAD DUP1 SWAP2 SUB SWAP1 LOG1 POP POP POP POP POP POP JUMP JUMPDEST PUSH1 0x2 PUSH1 0x20 MSTORE DUP2 PUSH1 0x0 MSTORE PUSH1 0x40 PUSH1 0x0 KECCAK256 DUP2 DUP2 SLOAD DUP2 LT PUSH2 0xC06 JUMPI PUSH1 0x0 DUP1 REVERT JUMPDEST PUSH1 0x0 SWAP2 DUP3 MSTORE PUSH1 0x20 SWAP1 SWAP2 KECCAK256 PUSH1 0x6 SWAP1 SWAP2 MUL ADD DUP1 SLOAD PUSH1 0x1 DUP3 ADD SLOAD PUSH1 0x2 DUP4 ADD SLOAD PUSH1 0x3 DUP5 ADD SLOAD PUSH1 0x4 DUP6 ADD SLOAD PUSH1 0x5 SWAP1 SWAP6 ADD SLOAD PUSH1 0x1 PUSH1 0x1 PUSH1 0xA0 SHL SUB SWAP5 DUP6 AND SWAP8 POP SWAP4 SWAP1 SWAP3 AND SWAP5 POP SWAP3 PUSH1 0xFF SWAP1 SWAP2 AND SWAP2 DUP7 JUMP JUMPDEST PUSH1 0x0 SLOAD PUSH1 0x1 PUSH1 0x1 PUSH1 0xA0 SHL SUB AND CALLER EQ PUSH2 0xC79 JUMPI PUSH1 0x40 MLOAD PUSH3 0x461BCD PUSH1 0xE5 SHL DUP2 MSTORE PUSH1 0x4 ADD PUSH2 0x2D9 SWAP1 PUSH2 0x12D3 JUMP JUMPDEST DUP1 JUMPDEST PUSH1 0x1 DUP1 SLOAD PUSH2 0xC89 SWAP2 SWAP1 PUSH2 0x1378 JUMP JUMPDEST DUP2 LT ISZERO PUSH2 0xD2F JUMPI PUSH1 0x1 PUSH2 0xC9C DUP3 DUP3 PUSH2 0x1360 JUMP JUMPDEST DUP2 SLOAD DUP2 LT PUSH2 0xCBA JUMPI PUSH4 0x4E487B71 PUSH1 0xE0 SHL PUSH1 0x0 MSTORE PUSH1 0x32 PUSH1 0x4 MSTORE PUSH1 0x24 PUSH1 0x0 REVERT JUMPDEST PUSH1 0x0 SWAP2 DUP3 MSTORE PUSH1 0x20 SWAP1 SWAP2 KECCAK256 ADD SLOAD PUSH1 0x1 DUP1 SLOAD PUSH1 0x1 PUSH1 0x1 PUSH1 0xA0 SHL SUB SWAP1 SWAP3 AND SWAP2 DUP4 SWAP1 DUP2 LT PUSH2 0xCF4 JUMPI PUSH4 0x4E487B71 PUSH1 0xE0 SHL PUSH1 0x0 MSTORE PUSH1 0x32 PUSH1 0x4 MSTORE PUSH1 0x24 PUSH1 0x0 REVERT JUMPDEST PUSH1 0x0 SWAP2 DUP3 MSTORE PUSH1 0x20 SWAP1 SWAP2 KECCAK256 ADD DUP1 SLOAD PUSH1 0x1 PUSH1 0x1 PUSH1 0xA0 SHL SUB NOT AND PUSH1 0x1 PUSH1 0x1 PUSH1 0xA0 SHL SUB SWAP3 SWAP1 SWAP3 AND SWAP2 SWAP1 SWAP2 OR SWAP1 SSTORE DUP1 PUSH2 0xD27 DUP2 PUSH2 0x138F JUMP JUMPDEST SWAP2 POP POP PUSH2 0xC7B JUMP JUMPDEST POP PUSH1 0x1 DUP1 SLOAD PUSH2 0xD3F SWAP1 DUP3 SWAP1 PUSH2 0x1378 JUMP JUMPDEST DUP2 SLOAD DUP2 LT PUSH2 0xD5D JUMPI PUSH4 0x4E487B71 PUSH1 0xE0 SHL PUSH1 0x0 MSTORE PUSH1 0x32 PUSH1 0x4 MSTORE PUSH1 0x24 PUSH1 0x0 REVERT JUMPDEST PUSH1 0x0 SWAP2 DUP3 MSTORE PUSH1 0x20 SWAP1 SWAP2 KECCAK256 ADD DUP1 SLOAD PUSH1 0x1 PUSH1 0x1 PUSH1 0xA0 SHL SUB NOT AND SWAP1 SSTORE POP JUMP JUMPDEST PUSH1 0x0 SLOAD PUSH1 0x1 PUSH1 0x1 PUSH1 0xA0 SHL SUB AND CALLER EQ PUSH2 0xDA3 JUMPI PUSH1 0x40 MLOAD PUSH3 0x461BCD PUSH1 0xE5 SHL DUP2 MSTORE PUSH1 0x4 ADD PUSH2 0x2D9 SWAP1 PUSH2 0x12D3 JUMP JUMPDEST PUSH1 0x1 PUSH1 0x1 PUSH1 0xA0 SHL SUB DUP2 AND PUSH2 0xE08 JUMPI PUSH1 0x40 MLOAD PUSH3 0x461BCD PUSH1 0xE5 SHL DUP2 MSTORE PUSH1 0x20 PUSH1 0x4 DUP3 ADD MSTORE PUSH1 0x26 PUSH1 0x24 DUP3 ADD MSTORE PUSH32 0x4F776E61626C653A206E6577206F776E657220697320746865207A65726F2061 PUSH1 0x44 DUP3 ADD MSTORE PUSH6 0x646472657373 PUSH1 0xD0 SHL PUSH1 0x64 DUP3 ADD MSTORE PUSH1 0x84 ADD PUSH2 0x2D9 JUMP JUMPDEST PUSH1 0x0 DUP1 SLOAD PUSH1 0x40 MLOAD PUSH1 0x1 PUSH1 0x1 PUSH1 0xA0 SHL SUB DUP1 DUP6 AND SWAP4 SWAP3 AND SWAP2 PUSH32 0x8BE0079C531659141344CD1FD0A4F28419497F9722A3DAAFE3B4186F6B6457E0 SWAP2 LOG3 PUSH1 0x0 DUP1 SLOAD PUSH1 0x1 PUSH1 0x1 PUSH1 0xA0 SHL SUB NOT AND PUSH1 0x1 PUSH1 0x1 PUSH1 0xA0 SHL SUB SWAP3 SWAP1 SWAP3 AND SWAP2 SWAP1 SWAP2 OR SWAP1 SSTORE JUMP JUMPDEST PUSH1 0x1 PUSH1 0x1 PUSH1 0xA0 SHL SUB DUP3 AND PUSH1 0x0 SWAP1 DUP2 MSTORE PUSH1 0x2 PUSH1 0x20 MSTORE PUSH1 0x40 DUP2 KECCAK256 DUP1 SLOAD DUP3 SWAP2 SWAP1 DUP5 SWAP1 DUP2 LT PUSH2 0xE9E JUMPI PUSH4 0x4E487B71 PUSH1 0xE0 SHL PUSH1 0x0 MSTORE PUSH1 0x32 PUSH1 0x4 MSTORE PUSH1 0x24 PUSH1 0x0 REVERT JUMPDEST PUSH1 0x0 SWAP2 DUP3 MSTORE PUSH1 0x20 SWAP2 DUP3 SWAP1 KECCAK256 PUSH1 0x40 DUP1 MLOAD PUSH1 0xC0 DUP2 ADD DUP3 MSTORE PUSH1 0x6 SWAP1 SWAP4 MUL SWAP1 SWAP2 ADD DUP1 SLOAD PUSH1 0x1 PUSH1 0x1 PUSH1 0xA0 SHL SUB SWAP1 DUP2 AND DUP5 MSTORE PUSH1 0x1 DUP3 ADD SLOAD AND SWAP4 DUP4 ADD SWAP4 SWAP1 SWAP4 MSTORE PUSH1 0x2 DUP4 ADD SLOAD SWAP1 DUP3 ADD MSTORE PUSH1 0x3 DUP3 ADD SLOAD SWAP1 SWAP2 SWAP1 PUSH1 0x60 DUP4 ADD SWAP1 PUSH1 0xFF AND PUSH1 0x4 DUP2 GT ISZERO PUSH2 0xF0F JUMPI PUSH4 0x4E487B71 PUSH1 0xE0 SHL PUSH1 0x0 MSTORE PUSH1 0x21 PUSH1 0x4 MSTORE PUSH1 0x24 PUSH1 0x0 REVERT JUMPDEST PUSH1 0x4 DUP2 GT ISZERO PUSH2 0xF2E JUMPI PUSH4 0x4E487B71 PUSH1 0xE0 SHL PUSH1 0x0 MSTORE PUSH1 0x21 PUSH1 0x4 MSTORE PUSH1 0x24 PUSH1 0x0 REVERT JUMPDEST DUP2 MSTORE PUSH1 0x20 ADD PUSH1 0x4 DUP3 ADD SLOAD DUP2 MSTORE PUSH1 0x20 ADD PUSH1 0x5 DUP3 ADD SLOAD DUP2 MSTORE POP POP SWAP1 POP PUSH1 0x0 PUSH2 0xF57 DUP3 PUSH1 0x20 ADD MLOAD PUSH2 0x777 JUMP JUMPDEST POP POP POP SWAP2 POP POP PUSH1 0x0 DUP1 PUSH1 0x4 DUP2 GT ISZERO PUSH2 0xF7F JUMPI PUSH4 0x4E487B71 PUSH1 0xE0 SHL PUSH1 0x0 MSTORE PUSH1 0x21 PUSH1 0x4 MSTORE PUSH1 0x24 PUSH1 0x0 REVERT JUMPDEST DUP4 PUSH1 0x60 ADD MLOAD PUSH1 0x4 DUP2 GT ISZERO PUSH2 0xFA3 JUMPI PUSH4 0x4E487B71 PUSH1 0xE0 SHL PUSH1 0x0 MSTORE PUSH1 0x21 PUSH1 0x4 MSTORE PUSH1 0x24 PUSH1 0x0 REVERT JUMPDEST EQ ISZERO PUSH2 0xFB6 JUMPI POP PUSH1 0x40 DUP3 ADD MLOAD DUP2 SGT PUSH2 0x10F3 JUMP JUMPDEST PUSH1 0x2 DUP4 PUSH1 0x60 ADD MLOAD PUSH1 0x4 DUP2 GT ISZERO PUSH2 0xFDC JUMPI PUSH4 0x4E487B71 PUSH1 0xE0 SHL PUSH1 0x0 MSTORE PUSH1 0x21 PUSH1 0x4 MSTORE PUSH1 0x24 PUSH1 0x0 REVERT JUMPDEST EQ ISZERO PUSH2 0xFEF JUMPI POP PUSH1 0x40 DUP3 ADD MLOAD DUP2 SLT PUSH2 0x10F3 JUMP JUMPDEST PUSH1 0x1 DUP4 PUSH1 0x60 ADD MLOAD PUSH1 0x4 DUP2 GT ISZERO PUSH2 0x1015 JUMPI PUSH4 0x4E487B71 PUSH1 0xE0 SHL PUSH1 0x0 MSTORE PUSH1 0x21 PUSH1 0x4 MSTORE PUSH1 0x24 PUSH1 0x0 REVERT JUMPDEST EQ ISZERO PUSH2 0x1029 JUMPI POP PUSH1 0x40 DUP3 ADD MLOAD DUP2 SLT ISZERO PUSH2 0x10F3 JUMP JUMPDEST PUSH1 0x3 DUP4 PUSH1 0x60 ADD MLOAD PUSH1 0x4 DUP2 GT ISZERO PUSH2 0x104F JUMPI PUSH4 0x4E487B71 PUSH1 0xE0 SHL PUSH1 0x0 MSTORE PUSH1 0x21 PUSH1 0x4 MSTORE PUSH1 0x24 PUSH1 0x0 REVERT JUMPDEST EQ ISZERO PUSH2 0x1063 JUMPI POP PUSH1 0x40 DUP3 ADD MLOAD DUP2 SGT ISZERO PUSH2 0x10F3 JUMP JUMPDEST PUSH1 0x4 DUP4 PUSH1 0x60 ADD MLOAD PUSH1 0x4 DUP2 GT ISZERO PUSH2 0x1089 JUMPI PUSH4 0x4E487B71 PUSH1 0xE0 SHL PUSH1 0x0 MSTORE PUSH1 0x21 PUSH1 0x4 MSTORE PUSH1 0x24 PUSH1 0x0 REVERT JUMPDEST EQ ISZERO PUSH2 0x109C JUMPI POP PUSH1 0x40 DUP3 ADD MLOAD DUP2 EQ PUSH2 0x10F3 JUMP JUMPDEST PUSH1 0x40 MLOAD PUSH3 0x461BCD PUSH1 0xE5 SHL DUP2 MSTORE PUSH1 0x20 PUSH1 0x4 DUP3 ADD MSTORE PUSH1 0x26 PUSH1 0x24 DUP3 ADD MSTORE PUSH32 0x696E76616C696420636F6D70617269736F6E206F70657261746F7220696E2064 PUSH1 0x44 DUP3 ADD MSTORE PUSH6 0x195C1BDCDA5D PUSH1 0xD2 SHL PUSH1 0x64 DUP3 ADD MSTORE PUSH1 0x84 ADD PUSH2 0x2D9 JUMP JUMPDEST SWAP6 SWAP5 POP POP POP POP POP JUMP JUMPDEST DUP1 CALLDATALOAD PUSH1 0x1 PUSH1 0x1 PUSH1 0xA0 SHL SUB DUP2 AND DUP2 EQ PUSH2 0x2AA JUMPI PUSH1 0x0 DUP1 REVERT JUMPDEST DUP1 MLOAD PUSH10 0xFFFFFFFFFFFFFFFFFFFF DUP2 AND DUP2 EQ PUSH2 0x2AA JUMPI PUSH1 0x0 DUP1 REVERT JUMPDEST PUSH1 0x0 PUSH1 0x20 DUP3 DUP5 SUB SLT ISZERO PUSH2 0x113E JUMPI DUP1 DUP2 REVERT JUMPDEST PUSH2 0x1147 DUP3 PUSH2 0x10FC JUMP JUMPDEST SWAP4 SWAP3 POP POP POP JUMP JUMPDEST PUSH1 0x0 DUP1 PUSH1 0x0 DUP1 PUSH1 0x0 PUSH1 0xA0 DUP7 DUP9 SUB SLT ISZERO PUSH2 0x1165 JUMPI DUP1 DUP2 REVERT JUMPDEST PUSH2 0x116E DUP7 PUSH2 0x10FC JUMP JUMPDEST SWAP5 POP PUSH2 0x117C PUSH1 0x20 DUP8 ADD PUSH2 0x10FC JUMP JUMPDEST SWAP4 POP PUSH1 0x40 DUP7 ADD CALLDATALOAD SWAP3 POP PUSH1 0x60 DUP7 ADD CALLDATALOAD PUSH1 0xFF DUP2 AND DUP2 EQ PUSH2 0x1198 JUMPI DUP2 DUP3 REVERT JUMPDEST SWAP5 SWAP8 SWAP4 SWAP7 POP SWAP2 SWAP5 PUSH1 0x80 ADD CALLDATALOAD SWAP3 SWAP2 POP POP JUMP JUMPDEST PUSH1 0x0 DUP1 PUSH1 0x40 DUP4 DUP6 SUB SLT ISZERO PUSH2 0x11BB JUMPI DUP2 DUP3 REVERT JUMPDEST PUSH2 0x11C4 DUP4 PUSH2 0x10FC JUMP JUMPDEST SWAP5 PUSH1 0x20 SWAP4 SWAP1 SWAP4 ADD CALLDATALOAD SWAP4 POP POP POP JUMP JUMPDEST PUSH1 0x0 PUSH1 0x20 DUP3 DUP5 SUB SLT ISZERO PUSH2 0x11E3 JUMPI DUP1 DUP2 REVERT JUMPDEST DUP2 MLOAD DUP1 ISZERO ISZERO DUP2 EQ PUSH2 0x1147 JUMPI DUP2 DUP3 REVERT JUMPDEST PUSH1 0x0 PUSH1 0x20 DUP3 DUP5 SUB SLT ISZERO PUSH2 0x1203 JUMPI DUP1 DUP2 REVERT JUMPDEST POP CALLDATALOAD SWAP2 SWAP1 POP JUMP JUMPDEST PUSH1 0x0 PUSH1 0x20 DUP3 DUP5 SUB SLT ISZERO PUSH2 0x121B JUMPI DUP1 DUP2 REVERT JUMPDEST POP MLOAD SWAP2 SWAP1 POP JUMP JUMPDEST PUSH1 0x0 DUP1 PUSH1 0x0 DUP1 PUSH1 0x0 PUSH1 0xA0 DUP7 DUP9 SUB SLT ISZERO PUSH2 0x1239 JUMPI DUP1 DUP2 REVERT JUMPDEST PUSH2 0x1242 DUP7 PUSH2 0x1113 JUMP JUMPDEST SWAP5 POP PUSH1 0x20 DUP7 ADD MLOAD SWAP4 POP PUSH1 0x40 DUP7 ADD MLOAD SWAP3 POP PUSH1 0x60 DUP7 ADD MLOAD SWAP2 POP PUSH2 0x1265 PUSH1 0x80 DUP8 ADD PUSH2 0x1113 JUMP JUMPDEST SWAP1 POP SWAP3 SWAP6 POP SWAP3 SWAP6 SWAP1 SWAP4 POP JUMP JUMPDEST PUSH1 0x5 DUP2 LT PUSH2 0x128F JUMPI PUSH4 0x4E487B71 PUSH1 0xE0 SHL PUSH1 0x0 MSTORE PUSH1 0x21 PUSH1 0x4 MSTORE PUSH1 0x24 PUSH1 0x0 REVERT JUMPDEST SWAP1 MSTORE JUMP JUMPDEST PUSH1 0x1 PUSH1 0x1 PUSH1 0xA0 SHL SUB DUP8 DUP2 AND DUP3 MSTORE DUP7 AND PUSH1 0x20 DUP3 ADD MSTORE PUSH1 0x40 DUP2 ADD DUP6 SWAP1 MSTORE PUSH1 0xC0 DUP2 ADD PUSH2 0x12BF PUSH1 0x60 DUP4 ADD DUP7 PUSH2 0x1271 JUMP JUMPDEST PUSH1 0x80 DUP3 ADD SWAP4 SWAP1 SWAP4 MSTORE PUSH1 0xA0 ADD MSTORE SWAP5 SWAP4 POP POP POP POP JUMP JUMPDEST PUSH1 0x20 DUP1 DUP3 MSTORE DUP2 DUP2 ADD MSTORE PUSH32 0x4F776E61626C653A2063616C6C6572206973206E6F7420746865206F776E6572 PUSH1 0x40 DUP3 ADD MSTORE PUSH1 0x60 ADD SWAP1 JUMP JUMPDEST DUP2 MLOAD PUSH1 0x1 PUSH1 0x1 PUSH1 0xA0 SHL SUB SWAP1 DUP2 AND DUP3 MSTORE PUSH1 0x20 DUP1 DUP5 ADD MLOAD SWAP1 SWAP2 AND SWAP1 DUP3 ADD MSTORE PUSH1 0x40 DUP1 DUP4 ADD MLOAD SWAP1 DUP3 ADD MSTORE PUSH1 0x60 DUP1 DUP4 ADD MLOAD PUSH1 0xC0 DUP4 ADD SWAP2 PUSH2 0x1345 SWAP1 DUP5 ADD DUP3 PUSH2 0x1271 JUMP JUMPDEST POP PUSH1 0x80 DUP4 ADD MLOAD PUSH1 0x80 DUP4 ADD MSTORE PUSH1 0xA0 DUP4 ADD MLOAD PUSH1 0xA0 DUP4 ADD MSTORE SWAP3 SWAP2 POP POP JUMP JUMPDEST PUSH1 0x0 DUP3 NOT DUP3 GT ISZERO PUSH2 0x1373 JUMPI PUSH2 0x1373 PUSH2 0x13AA JUMP JUMPDEST POP ADD SWAP1 JUMP JUMPDEST PUSH1 0x0 DUP3 DUP3 LT ISZERO PUSH2 0x138A JUMPI PUSH2 0x138A PUSH2 0x13AA JUMP JUMPDEST POP SUB SWAP1 JUMP JUMPDEST PUSH1 0x0 PUSH1 0x0 NOT DUP3 EQ ISZERO PUSH2 0x13A3 JUMPI PUSH2 0x13A3 PUSH2 0x13AA JUMP JUMPDEST POP PUSH1 0x1 ADD SWAP1 JUMP JUMPDEST PUSH4 0x4E487B71 PUSH1 0xE0 SHL PUSH1 0x0 MSTORE PUSH1 0x11 PUSH1 0x4 MSTORE PUSH1 0x24 PUSH1 0x0 REVERT INVALID LOG2 PUSH5 0x6970667358 0x22 SLT KECCAK256 SWAP6 DUP10 0x5E CALLDATASIZE PUSH17 0x5A92BDE2BFA026CA4C00DEDC2B57B60E8D NOT 0xD6 0x48 SDIV CALLDATALOAD 0x5E 0x48 PUSH10 0x716F64736F6C63430008 SUB STOP CALLER "
        },
        "methodIdentifiers": {
          "conditionLockedDeposits(address,uint256)": "ea510e21",
          "conditionSatisfied(address,uint256)": "f63d6546",
          "createConditionLockedDeposit(address,address,int256,uint8,uint256)": "8c4b7596",
          "getLatestRoundDataFor(address)": "7e8e4a24",
          "getPriceFeedInterface(address)": "50cc708b",
          "isWhitelisted(address)": "3af32abf",
          "owner()": "8da5cb5b",
          "removeFromWhitelist(uint256)": "f2395dc3",
          "renounceOwnership()": "715018a6",
          "tokenWhitelist(uint256)": "62d49284",
          "transferOwnership(address)": "f2fde38b",
          "whitelistToken(address)": "6247f6f2",
          "withdrawConditionLockedDeposit(uint256)": "71dc484b"
        }
      }
    }
  }
}