{
  "_format": "hh-sol-artifact-1",
  "contractName": "PriceConsumerV3",
  "sourceName": "contracts/PriceConsumerV3.sol",
  "abi": [
    {
      "inputs": [
        {
          "internalType": "address",
          "name": "_priceFeed",
          "type": "address"
        }
      ],
      "name": "getLatestRoundDataFor",
      "outputs": [
        {
          "internalType": "uint80",
          "name": "roundID",
          "type": "uint80"
        },
        {
          "internalType": "int256",
          "name": "price",
          "type": "int256"
        },
        {
          "internalType": "uint256",
          "name": "startedAt",
          "type": "uint256"
        },
        {
          "internalType": "uint256",
          "name": "updatedAt",
          "type": "uint256"
        },
        {
          "internalType": "uint80",
          "name": "answeredInRound",
          "type": "uint80"
        }
      ],
      "stateMutability": "view",
      "type": "function"
    },
    {
      "inputs": [
        {
          "internalType": "address",
          "name": "_priceFeed",
          "type": "address"
        }
      ],
      "name": "getPriceFeedInterface",
      "outputs": [
        {
          "internalType": "contract AggregatorV3Interface",
          "name": "",
          "type": "address"
        }
      ],
      "stateMutability": "pure",
      "type": "function"
    }
  ],
  "bytecode": "0x608060405234801561001057600080fd5b50610219806100206000396000f3fe608060405234801561001057600080fd5b50600436106100365760003560e01c806350cc708b1461003b5780637e8e4a241461006b575b600080fd5b61004e610049366004610166565b6100b5565b6040516001600160a01b0390911681526020015b60405180910390f35b61007e610079366004610166565b6100bc565b6040805169ffffffffffffffffffff968716815260208101959095528401929092526060830152909116608082015260a001610062565b805b919050565b600080600080600080869050806001600160a01b031663feaf968c6040518163ffffffff1660e01b815260040160a06040518083038186803b15801561010157600080fd5b505afa158015610115573d6000803e3d6000fd5b505050506040513d601f19601f820116820180604052508101906101399190610194565b939b929a50909850965090945092505050565b805169ffffffffffffffffffff811681146100b757600080fd5b600060208284031215610177578081fd5b81356001600160a01b038116811461018d578182fd5b9392505050565b600080600080600060a086880312156101ab578081fd5b6101b48661014c565b94506020860151935060408601519250606086015191506101d76080870161014c565b9050929550929590935056fea264697066735822122037395cf56f2a5a4fa898126d76bc5311a4177fd64704c2fb4ffd7265de326bcb64736f6c63430008030033",
  "linkReferences": {},
  "deployedLinkReferences": {}
}