{
  "_format": "hh-sol-artifact-1",
  "contractName": "TokenWhitelist",
  "sourceName": "contracts/TokenWhitelist.sol",
  "abi": [
    {
      "anonymous": false,
      "inputs": [
        {
          "indexed": true,
          "internalType": "address",
          "name": "previousOwner",
          "type": "address"
        },
        {
          "indexed": true,
          "internalType": "address",
          "name": "newOwner",
          "type": "address"
        }
      ],
      "name": "OwnershipTransferred",
      "type": "event"
    },
    {
      "inputs": [
        {
          "internalType": "address",
          "name": "_tokenAddress",
          "type": "address"
        }
      ],
      "name": "isWhitelisted",
      "outputs": [
        {
          "internalType": "bool",
          "name": "",
          "type": "bool"
        }
      ],
      "stateMutability": "view",
      "type": "function"
    },
    {
      "inputs": [],
      "name": "owner",
      "outputs": [
        {
          "internalType": "address",
          "name": "",
          "type": "address"
        }
      ],
      "stateMutability": "view",
      "type": "function"
    },
    {
      "inputs": [
        {
          "internalType": "uint256",
          "name": "_index",
          "type": "uint256"
        }
      ],
      "name": "removeFromWhitelist",
      "outputs": [],
      "stateMutability": "nonpayable",
      "type": "function"
    },
    {
      "inputs": [],
      "name": "renounceOwnership",
      "outputs": [],
      "stateMutability": "nonpayable",
      "type": "function"
    },
    {
      "inputs": [
        {
          "internalType": "uint256",
          "name": "",
          "type": "uint256"
        }
      ],
      "name": "tokenWhitelist",
      "outputs": [
        {
          "internalType": "address",
          "name": "",
          "type": "address"
        }
      ],
      "stateMutability": "view",
      "type": "function"
    },
    {
      "inputs": [
        {
          "internalType": "address",
          "name": "newOwner",
          "type": "address"
        }
      ],
      "name": "transferOwnership",
      "outputs": [],
      "stateMutability": "nonpayable",
      "type": "function"
    },
    {
      "inputs": [
        {
          "internalType": "address",
          "name": "_tokenAddress",
          "type": "address"
        }
      ],
      "name": "whitelistToken",
      "outputs": [],
      "stateMutability": "nonpayable",
      "type": "function"
    }
  ],
  "bytecode": "0x608060405234801561001057600080fd5b50600080546001600160a01b031916339081178255604051909182917f8be0079c531659141344cd1fd0a4f28419497f9722a3daafe3b4186f6b6457e0908290a350610719806100616000396000f3fe608060405234801561001057600080fd5b506004361061007d5760003560e01c8063715018a61161005b578063715018a6146100ea5780638da5cb5b146100f2578063f2395dc314610103578063f2fde38b146101165761007d565b80633af32abf146100825780636247f6f2146100aa57806362d49284146100bf575b600080fd5b6100956100903660046105f0565b610129565b60405190151581526020015b60405180910390f35b6100bd6100b83660046105f0565b6101a4565b005b6100d26100cd36600461061e565b61033e565b6040516001600160a01b0390911681526020016100a1565b6100bd610368565b6000546001600160a01b03166100d2565b6100bd61011136600461061e565b6103dc565b6100bd6101243660046105f0565b610506565b6000805b60015481101561019957826001600160a01b03166001828154811061016257634e487b7160e01b600052603260045260246000fd5b6000918252602090912001546001600160a01b0316141561018757600191505061019f565b80610191816106b2565b91505061012d565b50600090505b919050565b6000546001600160a01b031633146101d75760405162461bcd60e51b81526004016101ce9061064e565b60405180910390fd5b6101e081610129565b1561022d5760405162461bcd60e51b815260206004820152601960248201527f746f6b656e20616c72656164792077686974656c69737465640000000000000060448201526064016101ce565b6040516370a0823160e01b81523060048201526000906001600160a01b038316906370a082319060240160206040518083038186803b15801561026f57600080fd5b505afa158015610283573d6000803e3d6000fd5b505050506040513d601f19601f820116820180604052508101906102a79190610636565b10156102ed5760405162461bcd60e51b8152602060048201526015602482015274696e76616c696420746f6b656e206164647265737360581b60448201526064016101ce565b6001805480820182556000919091527fb10e2d527612073b26eecdfd717e6a320cf44b4afac2b0732d9fcbe2b7fa0cf60180546001600160a01b0319166001600160a01b0392909216919091179055565b6001818154811061034e57600080fd5b6000918252602090912001546001600160a01b0316905081565b6000546001600160a01b031633146103925760405162461bcd60e51b81526004016101ce9061064e565b600080546040516001600160a01b03909116907f8be0079c531659141344cd1fd0a4f28419497f9722a3daafe3b4186f6b6457e0908390a3600080546001600160a01b0319169055565b6000546001600160a01b031633146104065760405162461bcd60e51b81526004016101ce9061064e565b805b60018054610416919061069b565b8110156104bc5760016104298282610683565b8154811061044757634e487b7160e01b600052603260045260246000fd5b600091825260209091200154600180546001600160a01b03909216918390811061048157634e487b7160e01b600052603260045260246000fd5b600091825260209091200180546001600160a01b0319166001600160a01b0392909216919091179055806104b4816106b2565b915050610408565b50600180546104cc90829061069b565b815481106104ea57634e487b7160e01b600052603260045260246000fd5b600091825260209091200180546001600160a01b031916905550565b6000546001600160a01b031633146105305760405162461bcd60e51b81526004016101ce9061064e565b6001600160a01b0381166105955760405162461bcd60e51b815260206004820152602660248201527f4f776e61626c653a206e6577206f776e657220697320746865207a65726f206160448201526564647265737360d01b60648201526084016101ce565b600080546040516001600160a01b03808516939216917f8be0079c531659141344cd1fd0a4f28419497f9722a3daafe3b4186f6b6457e091a3600080546001600160a01b0319166001600160a01b0392909216919091179055565b600060208284031215610601578081fd5b81356001600160a01b0381168114610617578182fd5b9392505050565b60006020828403121561062f578081fd5b5035919050565b600060208284031215610647578081fd5b5051919050565b6020808252818101527f4f776e61626c653a2063616c6c6572206973206e6f7420746865206f776e6572604082015260600190565b60008219821115610696576106966106cd565b500190565b6000828210156106ad576106ad6106cd565b500390565b60006000198214156106c6576106c66106cd565b5060010190565b634e487b7160e01b600052601160045260246000fdfea26469706673582212208c1909bbb6350a7c28ee53d4a5290cbe1af6d4b91cf99ec49ec859a15aef49d064736f6c63430008030033",
  "linkReferences": {},
  "deployedLinkReferences": {}
}