{
  "_format": "hh-sol-artifact-1",
  "contractName": "ConditionalVault",
  "sourceName": "contracts/ConditionalVault.sol",
  "abi": [
    {
      "anonymous": false,
      "inputs": [
        {
          "components": [
            {
              "internalType": "address",
              "name": "tokenAddress",
              "type": "address"
            },
            {
              "internalType": "address",
              "name": "conditionOracleAddress",
              "type": "address"
            },
            {
              "internalType": "int256",
              "name": "requiredOracleAnswer",
              "type": "int256"
            },
            {
              "internalType": "enum ConditionalVault.ComparisonOperator",
              "name": "conditionOperator",
              "type": "uint8"
            },
            {
              "internalType": "uint256",
              "name": "amount",
              "type": "uint256"
            },
            {
              "internalType": "uint256",
              "name": "timestamp",
              "type": "uint256"
            }
          ],
          "indexed": false,
          "internalType": "struct ConditionalVault.ConditionLockedDeposit",
          "name": "conditionLockedDeposit",
          "type": "tuple"
        }
      ],
      "name": "NewConditionLockedDeposit",
      "type": "event"
    },
    {
      "anonymous": false,
      "inputs": [
        {
          "indexed": true,
          "internalType": "address",
          "name": "previousOwner",
          "type": "address"
        },
        {
          "indexed": true,
          "internalType": "address",
          "name": "newOwner",
          "type": "address"
        }
      ],
      "name": "OwnershipTransferred",
      "type": "event"
    },
    {
      "inputs": [
        {
          "internalType": "address",
          "name": "",
          "type": "address"
        },
        {
          "internalType": "address",
          "name": "",
          "type": "address"
        }
      ],
      "name": "balances",
      "outputs": [
        {
          "internalType": "uint256",
          "name": "",
          "type": "uint256"
        }
      ],
      "stateMutability": "view",
      "type": "function"
    },
    {
      "inputs": [
        {
          "internalType": "address",
          "name": "",
          "type": "address"
        },
        {
          "internalType": "uint256",
          "name": "",
          "type": "uint256"
        }
      ],
      "name": "conditionLockedDeposits",
      "outputs": [
        {
          "internalType": "address",
          "name": "tokenAddress",
          "type": "address"
        },
        {
          "internalType": "address",
          "name": "conditionOracleAddress",
          "type": "address"
        },
        {
          "internalType": "int256",
          "name": "requiredOracleAnswer",
          "type": "int256"
        },
        {
          "internalType": "enum ConditionalVault.ComparisonOperator",
          "name": "conditionOperator",
          "type": "uint8"
        },
        {
          "internalType": "uint256",
          "name": "amount",
          "type": "uint256"
        },
        {
          "internalType": "uint256",
          "name": "timestamp",
          "type": "uint256"
        }
      ],
      "stateMutability": "view",
      "type": "function"
    },
    {
      "inputs": [
        {
          "internalType": "address",
          "name": "_tokenAddress",
          "type": "address"
        },
        {
          "internalType": "address",
          "name": "_conditionOracleAddress",
          "type": "address"
        },
        {
          "internalType": "int256",
          "name": "_requiredOracleAnswer",
          "type": "int256"
        },
        {
          "internalType": "uint8",
          "name": "_conditionOperator",
          "type": "uint8"
        },
        {
          "internalType": "uint256",
          "name": "_amount",
          "type": "uint256"
        }
      ],
      "name": "createConditionLockedDeposit",
      "outputs": [],
      "stateMutability": "nonpayable",
      "type": "function"
    },
    {
      "inputs": [],
      "name": "owner",
      "outputs": [
        {
          "internalType": "address",
          "name": "",
          "type": "address"
        }
      ],
      "stateMutability": "view",
      "type": "function"
    },
    {
      "inputs": [],
      "name": "renounceOwnership",
      "outputs": [],
      "stateMutability": "nonpayable",
      "type": "function"
    },
    {
      "inputs": [
        {
          "internalType": "uint256",
          "name": "",
          "type": "uint256"
        }
      ],
      "name": "tokenWhitelist",
      "outputs": [
        {
          "internalType": "address",
          "name": "",
          "type": "address"
        }
      ],
      "stateMutability": "view",
      "type": "function"
    },
    {
      "inputs": [
        {
          "internalType": "address",
          "name": "newOwner",
          "type": "address"
        }
      ],
      "name": "transferOwnership",
      "outputs": [],
      "stateMutability": "nonpayable",
      "type": "function"
    },
    {
      "inputs": [
        {
          "internalType": "address",
          "name": "_tokenAddress",
          "type": "address"
        }
      ],
      "name": "whitelistToken",
      "outputs": [],
      "stateMutability": "nonpayable",
      "type": "function"
    }
  ],
  "bytecode": "0x608060405234801561001057600080fd5b50600080546001600160a01b031916339081178255604051909182917f8be0079c531659141344cd1fd0a4f28419497f9722a3daafe3b4186f6b6457e0908290a350610b6e806100616000396000f3fe608060405234801561001057600080fd5b50600436106100885760003560e01c80638da5cb5b1161005b5780638da5cb5b146100ed578063c23f001f146100fe578063ea510e2114610137578063f2fde38b1461015c57610088565b80636247f6f21461008d57806362d49284146100a2578063715018a6146100d25780638c4b7596146100da575b600080fd5b6100a061009b3660046108da565b61016f565b005b6100b56100b03660046109d1565b610278565b6040516001600160a01b0390911681526020015b60405180910390f35b6100a06102a2565b6100a06100e836600461092d565b610316565b6000546001600160a01b03166100b5565b61012961010c3660046108fb565b600260209081526000928352604080842090915290825290205481565b6040519081526020016100c9565b61014a610145366004610988565b6106f9565b6040516100c996959493929190610a23565b6100a061016a3660046108da565b61075e565b6000546001600160a01b031633146101a25760405162461bcd60e51b815260040161019990610a63565b60405180910390fd5b6040516370a0823160e01b81523060048201526000906001600160a01b038316906370a082319060240160206040518083038186803b1580156101e457600080fd5b505afa1580156101f8573d6000803e3d6000fd5b505050506040513d601f19601f8201168201806040525081019061021c91906109e9565b101561022757600080fd5b6001805480820182556000919091527fb10e2d527612073b26eecdfd717e6a320cf44b4afac2b0732d9fcbe2b7fa0cf60180546001600160a01b0319166001600160a01b0392909216919091179055565b6001818154811061028857600080fd5b6000918252602090912001546001600160a01b0316905081565b6000546001600160a01b031633146102cc5760405162461bcd60e51b815260040161019990610a63565b600080546040516001600160a01b03909116907f8be0079c531659141344cd1fd0a4f28419497f9722a3daafe3b4186f6b6457e0908390a3600080546001600160a01b0319169055565b61031f85610848565b61036b5760405162461bcd60e51b815260206004820152601960248201527f746f6b656e206973206e6f74206f6e2077686974656c697374000000000000006044820152606401610199565b6040516323b872dd60e01b8152336004820152306024820152604481018290526001600160a01b038616906323b872dd90606401602060405180830381600087803b1580156103b957600080fd5b505af11580156103cd573d6000803e3d6000fd5b505050506040513d601f19601f820116820180604052508101906103f191906109b1565b6104475760405162461bcd60e51b815260206004820152602160248201527f746f6b656e207472616e7366657220746f20636f6e7472616374206661696c656044820152601960fa1b6064820152608401610199565b60036000336001600160a01b03166001600160a01b031681526020019081526020016000206040518060c00160405280876001600160a01b03168152602001866001600160a01b031681526020018581526020018460ff1660048111156104be57634e487b7160e01b600052602160045260246000fd5b60048111156104dd57634e487b7160e01b600052602160045260246000fd5b8152602080820185905242604092830152835460018181018655600095865294829020845160069092020180546001600160a01b039283166001600160a01b03199182161782559285015181870180549190931693169290921790559082015160028201556060820151600382018054939492939192909160ff19169083600481111561057a57634e487b7160e01b600052602160045260246000fd5b02179055506080820151600482015560a09091015160059091015533600090815260036020908152604080832080548251818502810185019093528083529192909190849084015b828210156106805760008481526020908190206040805160c0810182526006860290920180546001600160a01b039081168452600182015416938301939093526002830154908201526003820154909190606083019060ff16600481111561063a57634e487b7160e01b600052602160045260246000fd5b600481111561065957634e487b7160e01b600052602160045260246000fd5b815260200160048201548152602001600582015481525050815260200190600101906105c2565b5050505090507fac9e6a809f911fb6291c5657eb54f815e5323b627fc3e9d696601a1c5b5731a881600183516106b69190610af0565b815181106106d457634e487b7160e01b600052603260045260246000fd5b60200260200101516040516106e99190610a98565b60405180910390a1505050505050565b6003602052816000526040600020818154811061071557600080fd5b60009182526020909120600690910201805460018201546002830154600384015460048501546005909501546001600160a01b0394851697509390921694509260ff9091169186565b6000546001600160a01b031633146107885760405162461bcd60e51b815260040161019990610a63565b6001600160a01b0381166107ed5760405162461bcd60e51b815260206004820152602660248201527f4f776e61626c653a206e6577206f776e657220697320746865207a65726f206160448201526564647265737360d01b6064820152608401610199565b600080546040516001600160a01b03808516939216917f8be0079c531659141344cd1fd0a4f28419497f9722a3daafe3b4186f6b6457e091a3600080546001600160a01b0319166001600160a01b0392909216919091179055565b6000805b6001548110156108b857826001600160a01b03166001828154811061088157634e487b7160e01b600052603260045260246000fd5b6000918252602090912001546001600160a01b031614156108a65760019150506108be565b806108b081610b07565b91505061084c565b50600090505b919050565b80356001600160a01b03811681146108be57600080fd5b6000602082840312156108eb578081fd5b6108f4826108c3565b9392505050565b6000806040838503121561090d578081fd5b610916836108c3565b9150610924602084016108c3565b90509250929050565b600080600080600060a08688031215610944578081fd5b61094d866108c3565b945061095b602087016108c3565b935060408601359250606086013560ff81168114610977578182fd5b949793965091946080013592915050565b6000806040838503121561099a578182fd5b6109a3836108c3565b946020939093013593505050565b6000602082840312156109c2578081fd5b815180151581146108f4578182fd5b6000602082840312156109e2578081fd5b5035919050565b6000602082840312156109fa578081fd5b5051919050565b60058110610a1f57634e487b7160e01b600052602160045260246000fd5b9052565b6001600160a01b038781168252861660208201526040810185905260c08101610a4f6060830186610a01565b608082019390935260a00152949350505050565b6020808252818101527f4f776e61626c653a2063616c6c6572206973206e6f7420746865206f776e6572604082015260600190565b81516001600160a01b039081168252602080840151909116908201526040808301519082015260608083015160c0830191610ad590840182610a01565b506080830151608083015260a083015160a083015292915050565b600082821015610b0257610b02610b22565b500390565b6000600019821415610b1b57610b1b610b22565b5060010190565b634e487b7160e01b600052601160045260246000fdfea2646970667358221220592fd8e4e821ab760a2216cff233e799972fef7a0ed5f47c34d440f797dfa01e64736f6c63430008030033",
  "linkReferences": {},
  "deployedLinkReferences": {}
}