{
  "_format": "hh-sol-artifact-1",
  "contractName": "ConditionalVault",
  "sourceName": "contracts/ConditionalVault.sol",
  "abi": [
    {
      "anonymous": false,
      "inputs": [
        {
          "components": [
            {
              "internalType": "address",
              "name": "tokenAddress",
              "type": "address"
            },
            {
              "internalType": "address",
              "name": "conditionOracleAddress",
              "type": "address"
            },
            {
              "internalType": "int256",
              "name": "conditionOracleValue",
              "type": "int256"
            },
            {
              "internalType": "enum ConditionalVault.ComparisonOperator",
              "name": "conditionOperator",
              "type": "uint8"
            },
            {
              "internalType": "uint256",
              "name": "amount",
              "type": "uint256"
            },
            {
              "internalType": "uint256",
              "name": "timestamp",
              "type": "uint256"
            }
          ],
          "indexed": false,
          "internalType": "struct ConditionalVault.ConditionLockedDeposit",
          "name": "conditionLockedDeposit",
          "type": "tuple"
        }
      ],
      "name": "NewConditionLockedDeposit",
      "type": "event"
    },
    {
      "anonymous": false,
      "inputs": [
        {
          "indexed": true,
          "internalType": "address",
          "name": "previousOwner",
          "type": "address"
        },
        {
          "indexed": true,
          "internalType": "address",
          "name": "newOwner",
          "type": "address"
        }
      ],
      "name": "OwnershipTransferred",
      "type": "event"
    },
    {
      "inputs": [
        {
          "internalType": "address",
          "name": "",
          "type": "address"
        },
        {
          "internalType": "uint256",
          "name": "",
          "type": "uint256"
        }
      ],
      "name": "conditionLockedDeposits",
      "outputs": [
        {
          "internalType": "address",
          "name": "tokenAddress",
          "type": "address"
        },
        {
          "internalType": "address",
          "name": "conditionOracleAddress",
          "type": "address"
        },
        {
          "internalType": "int256",
          "name": "conditionOracleValue",
          "type": "int256"
        },
        {
          "internalType": "enum ConditionalVault.ComparisonOperator",
          "name": "conditionOperator",
          "type": "uint8"
        },
        {
          "internalType": "uint256",
          "name": "amount",
          "type": "uint256"
        },
        {
          "internalType": "uint256",
          "name": "timestamp",
          "type": "uint256"
        }
      ],
      "stateMutability": "view",
      "type": "function"
    },
    {
      "inputs": [
        {
          "internalType": "address",
          "name": "_owner",
          "type": "address"
        },
        {
          "internalType": "uint256",
          "name": "_depositIndex",
          "type": "uint256"
        }
      ],
      "name": "conditionSatisfied",
      "outputs": [
        {
          "internalType": "bool",
          "name": "",
          "type": "bool"
        }
      ],
      "stateMutability": "view",
      "type": "function"
    },
    {
      "inputs": [
        {
          "internalType": "address",
          "name": "_tokenAddress",
          "type": "address"
        },
        {
          "internalType": "address",
          "name": "_conditionOracleAddress",
          "type": "address"
        },
        {
          "internalType": "int256",
          "name": "_conditionOracleValue",
          "type": "int256"
        },
        {
          "internalType": "uint8",
          "name": "_conditionOperator",
          "type": "uint8"
        },
        {
          "internalType": "uint256",
          "name": "_amount",
          "type": "uint256"
        }
      ],
      "name": "createConditionLockedDeposit",
      "outputs": [],
      "stateMutability": "nonpayable",
      "type": "function"
    },
    {
      "inputs": [
        {
          "internalType": "address",
          "name": "_priceFeed",
          "type": "address"
        }
      ],
      "name": "getLatestRoundDataFor",
      "outputs": [
        {
          "internalType": "uint80",
          "name": "roundID",
          "type": "uint80"
        },
        {
          "internalType": "int256",
          "name": "price",
          "type": "int256"
        },
        {
          "internalType": "uint256",
          "name": "startedAt",
          "type": "uint256"
        },
        {
          "internalType": "uint256",
          "name": "updatedAt",
          "type": "uint256"
        },
        {
          "internalType": "uint80",
          "name": "answeredInRound",
          "type": "uint80"
        }
      ],
      "stateMutability": "view",
      "type": "function"
    },
    {
      "inputs": [
        {
          "internalType": "address",
          "name": "_priceFeed",
          "type": "address"
        }
      ],
      "name": "getPriceFeedInterface",
      "outputs": [
        {
          "internalType": "contract AggregatorV3Interface",
          "name": "",
          "type": "address"
        }
      ],
      "stateMutability": "pure",
      "type": "function"
    },
    {
      "inputs": [],
      "name": "owner",
      "outputs": [
        {
          "internalType": "address",
          "name": "",
          "type": "address"
        }
      ],
      "stateMutability": "view",
      "type": "function"
    },
    {
      "inputs": [],
      "name": "renounceOwnership",
      "outputs": [],
      "stateMutability": "nonpayable",
      "type": "function"
    },
    {
      "inputs": [
        {
          "internalType": "uint256",
          "name": "",
          "type": "uint256"
        }
      ],
      "name": "tokenWhitelist",
      "outputs": [
        {
          "internalType": "address",
          "name": "",
          "type": "address"
        }
      ],
      "stateMutability": "view",
      "type": "function"
    },
    {
      "inputs": [
        {
          "internalType": "address",
          "name": "newOwner",
          "type": "address"
        }
      ],
      "name": "transferOwnership",
      "outputs": [],
      "stateMutability": "nonpayable",
      "type": "function"
    },
    {
      "inputs": [
        {
          "internalType": "address",
          "name": "_tokenAddress",
          "type": "address"
        }
      ],
      "name": "whitelistToken",
      "outputs": [],
      "stateMutability": "nonpayable",
      "type": "function"
    }
  ],
  "bytecode": "0x608060405234801561001057600080fd5b50600080546001600160a01b031916339081178255604051909182917f8be0079c531659141344cd1fd0a4f28419497f9722a3daafe3b4186f6b6457e0908290a350610fc1806100616000396000f3fe608060405234801561001057600080fd5b506004361061009e5760003560e01c80638c4b7596116100665780638c4b75961461014d5780638da5cb5b14610160578063ea510e2114610171578063f2fde38b14610196578063f63d6546146101a95761009e565b806350cc708b146100a35780636247f6f2146100d357806362d49284146100e8578063715018a6146100fb5780637e8e4a2414610103575b600080fd5b6100b66100b1366004610d10565b6101cc565b6040516001600160a01b0390911681526020015b60405180910390f35b6100e66100e1366004610d10565b6101d3565b005b6100b66100f6366004610dd5565b61036d565b6100e6610397565b610116610111366004610d10565b61040b565b6040805169ffffffffffffffffffff968716815260208101959095528401929092526060830152909116608082015260a0016100ca565b6100e661015b366004610d31565b61049b565b6000546001600160a01b03166100b6565b61018461017f366004610d8c565b61087e565b6040516100ca96959493929190610e76565b6100e66101a4366004610d10565b6108e3565b6101bc6101b7366004610d8c565b6109cd565b60405190151581526020016100ca565b805b919050565b6000546001600160a01b031633146102065760405162461bcd60e51b81526004016101fd90610eb6565b60405180910390fd5b61020f81610c66565b1561025c5760405162461bcd60e51b815260206004820152601960248201527f746f6b656e20616c72656164792077686974656c69737465640000000000000060448201526064016101fd565b6040516370a0823160e01b81523060048201526000906001600160a01b038316906370a082319060240160206040518083038186803b15801561029e57600080fd5b505afa1580156102b2573d6000803e3d6000fd5b505050506040513d601f19601f820116820180604052508101906102d69190610ded565b101561031c5760405162461bcd60e51b8152602060048201526015602482015274696e76616c696420746f6b656e206164647265737360581b60448201526064016101fd565b6001805480820182556000919091527fb10e2d527612073b26eecdfd717e6a320cf44b4afac2b0732d9fcbe2b7fa0cf60180546001600160a01b0319166001600160a01b0392909216919091179055565b6001818154811061037d57600080fd5b6000918252602090912001546001600160a01b0316905081565b6000546001600160a01b031633146103c15760405162461bcd60e51b81526004016101fd90610eb6565b600080546040516001600160a01b03909116907f8be0079c531659141344cd1fd0a4f28419497f9722a3daafe3b4186f6b6457e0908390a3600080546001600160a01b0319169055565b600080600080600080869050806001600160a01b031663feaf968c6040518163ffffffff1660e01b815260040160a06040518083038186803b15801561045057600080fd5b505afa158015610464573d6000803e3d6000fd5b505050506040513d601f19601f820116820180604052508101906104889190610e05565b939b929a50909850965090945092505050565b6104a485610c66565b6104f05760405162461bcd60e51b815260206004820152601960248201527f746f6b656e206973206e6f74206f6e2077686974656c6973740000000000000060448201526064016101fd565b6040516323b872dd60e01b8152336004820152306024820152604481018290526001600160a01b038616906323b872dd90606401602060405180830381600087803b15801561053e57600080fd5b505af1158015610552573d6000803e3d6000fd5b505050506040513d601f19601f820116820180604052508101906105769190610db5565b6105cc5760405162461bcd60e51b815260206004820152602160248201527f746f6b656e207472616e7366657220746f20636f6e7472616374206661696c656044820152601960fa1b60648201526084016101fd565b60026000336001600160a01b03166001600160a01b031681526020019081526020016000206040518060c00160405280876001600160a01b03168152602001866001600160a01b031681526020018581526020018460ff16600481111561064357634e487b7160e01b600052602160045260246000fd5b600481111561066257634e487b7160e01b600052602160045260246000fd5b8152602080820185905242604092830152835460018181018655600095865294829020845160069092020180546001600160a01b039283166001600160a01b03199182161782559285015181870180549190931693169290921790559082015160028201556060820151600382018054939492939192909160ff1916908360048111156106ff57634e487b7160e01b600052602160045260246000fd5b02179055506080820151600482015560a09091015160059091015533600090815260026020908152604080832080548251818502810185019093528083529192909190849084015b828210156108055760008481526020908190206040805160c0810182526006860290920180546001600160a01b039081168452600182015416938301939093526002830154908201526003820154909190606083019060ff1660048111156107bf57634e487b7160e01b600052602160045260246000fd5b60048111156107de57634e487b7160e01b600052602160045260246000fd5b81526020016004820154815260200160058201548152505081526020019060010190610747565b5050505090507fac9e6a809f911fb6291c5657eb54f815e5323b627fc3e9d696601a1c5b5731a8816001835161083b9190610f43565b8151811061085957634e487b7160e01b600052603260045260246000fd5b602002602001015160405161086e9190610eeb565b60405180910390a1505050505050565b6002602052816000526040600020818154811061089a57600080fd5b60009182526020909120600690910201805460018201546002830154600384015460048501546005909501546001600160a01b0394851697509390921694509260ff9091169186565b6000546001600160a01b0316331461090d5760405162461bcd60e51b81526004016101fd90610eb6565b6001600160a01b0381166109725760405162461bcd60e51b815260206004820152602660248201527f4f776e61626c653a206e6577206f776e657220697320746865207a65726f206160448201526564647265737360d01b60648201526084016101fd565b600080546040516001600160a01b03808516939216917f8be0079c531659141344cd1fd0a4f28419497f9722a3daafe3b4186f6b6457e091a3600080546001600160a01b0319166001600160a01b0392909216919091179055565b6001600160a01b0382166000908152600260205260408120805482919084908110610a0857634e487b7160e01b600052603260045260246000fd5b60009182526020918290206040805160c081018252600690930290910180546001600160a01b039081168452600182015416938301939093526002830154908201526003820154909190606083019060ff166004811115610a7957634e487b7160e01b600052602160045260246000fd5b6004811115610a9857634e487b7160e01b600052602160045260246000fd5b81526020016004820154815260200160058201548152505090506000610ac1826020015161040b565b5050509150506000806004811115610ae957634e487b7160e01b600052602160045260246000fd5b83606001516004811115610b0d57634e487b7160e01b600052602160045260246000fd5b1415610b20575060408201518113610c5d565b600283606001516004811115610b4657634e487b7160e01b600052602160045260246000fd5b1415610b59575060408201518112610c5d565b600183606001516004811115610b7f57634e487b7160e01b600052602160045260246000fd5b1415610b9357506040820151811215610c5d565b600383606001516004811115610bb957634e487b7160e01b600052602160045260246000fd5b1415610bcd57506040820151811315610c5d565b600483606001516004811115610bf357634e487b7160e01b600052602160045260246000fd5b1415610c06575060408201518114610c5d565b60405162461bcd60e51b815260206004820152602660248201527f696e76616c696420636f6d70617269736f6e206f70657261746f7220696e2064604482015265195c1bdcda5d60d21b60648201526084016101fd565b95945050505050565b6000805b600154811015610cd657826001600160a01b031660018281548110610c9f57634e487b7160e01b600052603260045260246000fd5b6000918252602090912001546001600160a01b03161415610cc45760019150506101ce565b80610cce81610f5a565b915050610c6a565b50600092915050565b80356001600160a01b03811681146101ce57600080fd5b805169ffffffffffffffffffff811681146101ce57600080fd5b600060208284031215610d21578081fd5b610d2a82610cdf565b9392505050565b600080600080600060a08688031215610d48578081fd5b610d5186610cdf565b9450610d5f60208701610cdf565b935060408601359250606086013560ff81168114610d7b578182fd5b949793965091946080013592915050565b60008060408385031215610d9e578182fd5b610da783610cdf565b946020939093013593505050565b600060208284031215610dc6578081fd5b81518015158114610d2a578182fd5b600060208284031215610de6578081fd5b5035919050565b600060208284031215610dfe578081fd5b5051919050565b600080600080600060a08688031215610e1c578081fd5b610e2586610cf6565b9450602086015193506040860151925060608601519150610e4860808701610cf6565b90509295509295909350565b60058110610e7257634e487b7160e01b600052602160045260246000fd5b9052565b6001600160a01b038781168252861660208201526040810185905260c08101610ea26060830186610e54565b608082019390935260a00152949350505050565b6020808252818101527f4f776e61626c653a2063616c6c6572206973206e6f7420746865206f776e6572604082015260600190565b81516001600160a01b039081168252602080840151909116908201526040808301519082015260608083015160c0830191610f2890840182610e54565b506080830151608083015260a083015160a083015292915050565b600082821015610f5557610f55610f75565b500390565b6000600019821415610f6e57610f6e610f75565b5060010190565b634e487b7160e01b600052601160045260246000fdfea2646970667358221220f4f3162ad5dce2af1556183809ed7d2dcd46c2e6a3164c60cfb1bb9e3774e55c64736f6c63430008030033",
  "linkReferences": {},
  "deployedLinkReferences": {}
}