{
  "_format": "hh-sol-artifact-1",
  "contractName": "ConditionalVault",
  "sourceName": "contracts/ConditionalVault.sol",
  "abi": [
    {
      "anonymous": false,
      "inputs": [
        {
          "indexed": true,
          "internalType": "address",
          "name": "previousOwner",
          "type": "address"
        },
        {
          "indexed": true,
          "internalType": "address",
          "name": "newOwner",
          "type": "address"
        }
      ],
      "name": "OwnershipTransferred",
      "type": "event"
    },
    {
      "inputs": [
        {
          "internalType": "address",
          "name": "",
          "type": "address"
        },
        {
          "internalType": "address",
          "name": "",
          "type": "address"
        }
      ],
      "name": "balances",
      "outputs": [
        {
          "internalType": "uint256",
          "name": "",
          "type": "uint256"
        }
      ],
      "stateMutability": "view",
      "type": "function"
    },
    {
      "inputs": [
        {
          "internalType": "address",
          "name": "_tokenAddress",
          "type": "address"
        },
        {
          "internalType": "uint256",
          "name": "amount",
          "type": "uint256"
        }
      ],
      "name": "deposit",
      "outputs": [],
      "stateMutability": "nonpayable",
      "type": "function"
    },
    {
      "inputs": [],
      "name": "owner",
      "outputs": [
        {
          "internalType": "address",
          "name": "",
          "type": "address"
        }
      ],
      "stateMutability": "view",
      "type": "function"
    },
    {
      "inputs": [],
      "name": "renounceOwnership",
      "outputs": [],
      "stateMutability": "nonpayable",
      "type": "function"
    },
    {
      "inputs": [
        {
          "internalType": "uint256",
          "name": "",
          "type": "uint256"
        }
      ],
      "name": "tokenWhitelist",
      "outputs": [
        {
          "internalType": "address",
          "name": "",
          "type": "address"
        }
      ],
      "stateMutability": "view",
      "type": "function"
    },
    {
      "inputs": [
        {
          "internalType": "address",
          "name": "newOwner",
          "type": "address"
        }
      ],
      "name": "transferOwnership",
      "outputs": [],
      "stateMutability": "nonpayable",
      "type": "function"
    },
    {
      "inputs": [
        {
          "internalType": "address",
          "name": "_tokenAddress",
          "type": "address"
        }
      ],
      "name": "whitelistToken",
      "outputs": [],
      "stateMutability": "nonpayable",
      "type": "function"
    }
  ],
  "bytecode": "0x608060405234801561001057600080fd5b50600080546001600160a01b031916339081178255604051909182917f8be0079c531659141344cd1fd0a4f28419497f9722a3daafe3b4186f6b6457e0908290a350610739806100616000396000f3fe608060405234801561001057600080fd5b506004361061007d5760003560e01c8063715018a61161005b578063715018a6146100da5780638da5cb5b146100e2578063c23f001f146100f3578063f2fde38b1461012c5761007d565b806347e7ef24146100825780636247f6f21461009757806362d49284146100aa575b600080fd5b61009561009036600461060c565b61013f565b005b6100956100a53660046105b9565b61029f565b6100bd6100b8366004610655565b61039f565b6040516001600160a01b0390911681526020015b60405180910390f35b6100956103c9565b6000546001600160a01b03166100bd565b61011e6101013660046105da565b600260209081526000928352604080842090915290825290205481565b6040519081526020016100d1565b61009561013a3660046105b9565b61043d565b61014882610527565b6101995760405162461bcd60e51b815260206004820152601960248201527f746f6b656e206973206e6f74206f6e2077686974656c6973740000000000000060448201526064015b60405180910390fd5b6040516323b872dd60e01b8152336004820152306024820152604481018290526001600160a01b038316906323b872dd90606401602060405180830381600087803b1580156101e757600080fd5b505af11580156101fb573d6000803e3d6000fd5b505050506040513d601f19601f8201168201806040525081019061021f9190610635565b6102635760405162461bcd60e51b81526020600482015260156024820152741d1bdad95b881d1c985b9cd9995c8819985a5b1959605a1b6044820152606401610190565b3360009081526002602090815260408083206001600160a01b0386168452909152812080548392906102969084906106ba565b90915550505050565b6000546001600160a01b031633146102c95760405162461bcd60e51b815260040161019090610685565b6040516370a0823160e01b81523060048201526000906001600160a01b038316906370a082319060240160206040518083038186803b15801561030b57600080fd5b505afa15801561031f573d6000803e3d6000fd5b505050506040513d601f19601f82011682018060405250810190610343919061066d565b101561034e57600080fd5b6001805480820182556000919091527fb10e2d527612073b26eecdfd717e6a320cf44b4afac2b0732d9fcbe2b7fa0cf60180546001600160a01b0319166001600160a01b0392909216919091179055565b600181815481106103af57600080fd5b6000918252602090912001546001600160a01b0316905081565b6000546001600160a01b031633146103f35760405162461bcd60e51b815260040161019090610685565b600080546040516001600160a01b03909116907f8be0079c531659141344cd1fd0a4f28419497f9722a3daafe3b4186f6b6457e0908390a3600080546001600160a01b0319169055565b6000546001600160a01b031633146104675760405162461bcd60e51b815260040161019090610685565b6001600160a01b0381166104cc5760405162461bcd60e51b815260206004820152602660248201527f4f776e61626c653a206e6577206f776e657220697320746865207a65726f206160448201526564647265737360d01b6064820152608401610190565b600080546040516001600160a01b03808516939216917f8be0079c531659141344cd1fd0a4f28419497f9722a3daafe3b4186f6b6457e091a3600080546001600160a01b0319166001600160a01b0392909216919091179055565b6000805b60015481101561059757826001600160a01b03166001828154811061056057634e487b7160e01b600052603260045260246000fd5b6000918252602090912001546001600160a01b0316141561058557600191505061059d565b8061058f816106d2565b91505061052b565b50600090505b919050565b80356001600160a01b038116811461059d57600080fd5b6000602082840312156105ca578081fd5b6105d3826105a2565b9392505050565b600080604083850312156105ec578081fd5b6105f5836105a2565b9150610603602084016105a2565b90509250929050565b6000806040838503121561061e578182fd5b610627836105a2565b946020939093013593505050565b600060208284031215610646578081fd5b815180151581146105d3578182fd5b600060208284031215610666578081fd5b5035919050565b60006020828403121561067e578081fd5b5051919050565b6020808252818101527f4f776e61626c653a2063616c6c6572206973206e6f7420746865206f776e6572604082015260600190565b600082198211156106cd576106cd6106ed565b500190565b60006000198214156106e6576106e66106ed565b5060010190565b634e487b7160e01b600052601160045260246000fdfea2646970667358221220227b7e9e4cf017a1b0b37e55db5eb759046a6f9e5109c59d23926f2315a9115264736f6c63430008030033",
  "linkReferences": {},
  "deployedLinkReferences": {}
}