{
  "_format": "hh-sol-artifact-1",
  "contractName": "ConditionalVault",
  "sourceName": "contracts/ConditionalVault.sol",
  "abi": [
    {
      "anonymous": false,
      "inputs": [
        {
          "components": [
            {
              "internalType": "address",
              "name": "tokenAddress",
              "type": "address"
            },
            {
              "internalType": "address",
              "name": "conditionOracleAddress",
              "type": "address"
            },
            {
              "internalType": "int256",
              "name": "conditionOracleValue",
              "type": "int256"
            },
            {
              "internalType": "enum ConditionalVault.ComparisonOperator",
              "name": "conditionOperator",
              "type": "uint8"
            },
            {
              "internalType": "uint256",
              "name": "amount",
              "type": "uint256"
            },
            {
              "internalType": "uint256",
              "name": "timestamp",
              "type": "uint256"
            }
          ],
          "indexed": false,
          "internalType": "struct ConditionalVault.ConditionLockedDeposit",
          "name": "conditionLockedDeposit",
          "type": "tuple"
        }
      ],
      "name": "NewConditionLockedDeposit",
      "type": "event"
    },
    {
      "anonymous": false,
      "inputs": [
        {
          "indexed": true,
          "internalType": "address",
          "name": "previousOwner",
          "type": "address"
        },
        {
          "indexed": true,
          "internalType": "address",
          "name": "newOwner",
          "type": "address"
        }
      ],
      "name": "OwnershipTransferred",
      "type": "event"
    },
    {
      "inputs": [
        {
          "internalType": "address",
          "name": "",
          "type": "address"
        },
        {
          "internalType": "uint256",
          "name": "",
          "type": "uint256"
        }
      ],
      "name": "conditionLockedDeposits",
      "outputs": [
        {
          "internalType": "address",
          "name": "tokenAddress",
          "type": "address"
        },
        {
          "internalType": "address",
          "name": "conditionOracleAddress",
          "type": "address"
        },
        {
          "internalType": "int256",
          "name": "conditionOracleValue",
          "type": "int256"
        },
        {
          "internalType": "enum ConditionalVault.ComparisonOperator",
          "name": "conditionOperator",
          "type": "uint8"
        },
        {
          "internalType": "uint256",
          "name": "amount",
          "type": "uint256"
        },
        {
          "internalType": "uint256",
          "name": "timestamp",
          "type": "uint256"
        }
      ],
      "stateMutability": "view",
      "type": "function"
    },
    {
      "inputs": [
        {
          "internalType": "address",
          "name": "_owner",
          "type": "address"
        },
        {
          "internalType": "uint256",
          "name": "_depositIndex",
          "type": "uint256"
        }
      ],
      "name": "conditionSatisfied",
      "outputs": [
        {
          "internalType": "bool",
          "name": "",
          "type": "bool"
        }
      ],
      "stateMutability": "view",
      "type": "function"
    },
    {
      "inputs": [
        {
          "internalType": "address",
          "name": "_tokenAddress",
          "type": "address"
        },
        {
          "internalType": "address",
          "name": "_conditionOracleAddress",
          "type": "address"
        },
        {
          "internalType": "int256",
          "name": "_conditionOracleValue",
          "type": "int256"
        },
        {
          "internalType": "uint8",
          "name": "_conditionOperator",
          "type": "uint8"
        },
        {
          "internalType": "uint256",
          "name": "_amount",
          "type": "uint256"
        }
      ],
      "name": "createConditionLockedDeposit",
      "outputs": [],
      "stateMutability": "nonpayable",
      "type": "function"
    },
    {
      "inputs": [
        {
          "internalType": "address",
          "name": "_priceFeed",
          "type": "address"
        }
      ],
      "name": "getLatestRoundDataFor",
      "outputs": [
        {
          "internalType": "uint80",
          "name": "roundID",
          "type": "uint80"
        },
        {
          "internalType": "int256",
          "name": "price",
          "type": "int256"
        },
        {
          "internalType": "uint256",
          "name": "startedAt",
          "type": "uint256"
        },
        {
          "internalType": "uint256",
          "name": "updatedAt",
          "type": "uint256"
        },
        {
          "internalType": "uint80",
          "name": "answeredInRound",
          "type": "uint80"
        }
      ],
      "stateMutability": "view",
      "type": "function"
    },
    {
      "inputs": [
        {
          "internalType": "address",
          "name": "_priceFeed",
          "type": "address"
        }
      ],
      "name": "getPriceFeedInterface",
      "outputs": [
        {
          "internalType": "contract AggregatorV3Interface",
          "name": "",
          "type": "address"
        }
      ],
      "stateMutability": "pure",
      "type": "function"
    },
    {
      "inputs": [
        {
          "internalType": "address",
          "name": "_tokenAddress",
          "type": "address"
        }
      ],
      "name": "isWhitelisted",
      "outputs": [
        {
          "internalType": "bool",
          "name": "",
          "type": "bool"
        }
      ],
      "stateMutability": "view",
      "type": "function"
    },
    {
      "inputs": [],
      "name": "owner",
      "outputs": [
        {
          "internalType": "address",
          "name": "",
          "type": "address"
        }
      ],
      "stateMutability": "view",
      "type": "function"
    },
    {
      "inputs": [
        {
          "internalType": "uint256",
          "name": "_index",
          "type": "uint256"
        }
      ],
      "name": "removeFromWhitelist",
      "outputs": [],
      "stateMutability": "nonpayable",
      "type": "function"
    },
    {
      "inputs": [],
      "name": "renounceOwnership",
      "outputs": [],
      "stateMutability": "nonpayable",
      "type": "function"
    },
    {
      "inputs": [
        {
          "internalType": "uint256",
          "name": "",
          "type": "uint256"
        }
      ],
      "name": "tokenWhitelist",
      "outputs": [
        {
          "internalType": "address",
          "name": "",
          "type": "address"
        }
      ],
      "stateMutability": "view",
      "type": "function"
    },
    {
      "inputs": [
        {
          "internalType": "address",
          "name": "newOwner",
          "type": "address"
        }
      ],
      "name": "transferOwnership",
      "outputs": [],
      "stateMutability": "nonpayable",
      "type": "function"
    },
    {
      "inputs": [
        {
          "internalType": "address",
          "name": "_tokenAddress",
          "type": "address"
        }
      ],
      "name": "whitelistToken",
      "outputs": [],
      "stateMutability": "nonpayable",
      "type": "function"
    },
    {
      "inputs": [
        {
          "internalType": "uint256",
          "name": "_depositIndex",
          "type": "uint256"
        }
      ],
      "name": "withdrawConditionLockedDeposit",
      "outputs": [],
      "stateMutability": "nonpayable",
      "type": "function"
    }
  ],
  "bytecode": "0x608060405234801561001057600080fd5b50600080546001600160a01b031916339081178255604051909182917f8be0079c531659141344cd1fd0a4f28419497f9722a3daafe3b4186f6b6457e0908290a3506114d5806100616000396000f3fe608060405234801561001057600080fd5b50600436106100cf5760003560e01c80637e8e4a241161008c578063ea510e2111610066578063ea510e21146101d6578063f2395dc3146101fb578063f2fde38b1461020e578063f63d654614610221576100cf565b80637e8e4a24146101685780638c4b7596146101b25780638da5cb5b146101c5576100cf565b80633af32abf146100d457806350cc708b146100fc5780636247f6f21461012557806362d492841461013a578063715018a61461014d57806371dc484b14610155575b600080fd5b6100e76100e236600461120c565b610234565b60405190151581526020015b60405180910390f35b61010d61010a36600461120c565b90565b6040516001600160a01b0390911681526020016100f3565b61013861013336600461120c565b6102af565b005b61010d6101483660046112d1565b610449565b610138610473565b6101386101633660046112d1565b6104e7565b61017b61017636600461120c565b610856565b6040805169ffffffffffffffffffff968716815260208101959095528401929092526060830152909116608082015260a0016100f3565b6101386101c036600461122d565b6108e6565b6000546001600160a01b031661010d565b6101e96101e4366004611288565b610cc9565b6040516100f396959493929190611372565b6101386102093660046112d1565b610d2e565b61013861021c36600461120c565b610e58565b6100e761022f366004611288565b610f42565b6000805b6001548110156102a457826001600160a01b03166001828154811061026d57634e487b7160e01b600052603260045260246000fd5b6000918252602090912001546001600160a01b031614156102925760019150506102aa565b8061029c8161146e565b915050610238565b50600090505b919050565b6000546001600160a01b031633146102e25760405162461bcd60e51b81526004016102d9906113b2565b60405180910390fd5b6102eb81610234565b156103385760405162461bcd60e51b815260206004820152601960248201527f746f6b656e20616c72656164792077686974656c69737465640000000000000060448201526064016102d9565b6040516370a0823160e01b81523060048201526000906001600160a01b038316906370a082319060240160206040518083038186803b15801561037a57600080fd5b505afa15801561038e573d6000803e3d6000fd5b505050506040513d601f19601f820116820180604052508101906103b291906112e9565b10156103f85760405162461bcd60e51b8152602060048201526015602482015274696e76616c696420746f6b656e206164647265737360581b60448201526064016102d9565b6001805480820182556000919091527fb10e2d527612073b26eecdfd717e6a320cf44b4afac2b0732d9fcbe2b7fa0cf60180546001600160a01b0319166001600160a01b0392909216919091179055565b6001818154811061045957600080fd5b6000918252602090912001546001600160a01b0316905081565b6000546001600160a01b0316331461049d5760405162461bcd60e51b81526004016102d9906113b2565b600080546040516001600160a01b03909116907f8be0079c531659141344cd1fd0a4f28419497f9722a3daafe3b4186f6b6457e0908390a3600080546001600160a01b0319169055565b6104f13382610f42565b61053d5760405162461bcd60e51b815260206004820181905260248201527f776974686472617720636f6e646974696f6e206e6f742073617469736669656460448201526064016102d9565b33600090815260026020526040812080548390811061056c57634e487b7160e01b600052603260045260246000fd5b60009182526020918290206040805160c081018252600690930290910180546001600160a01b039081168452600182015416938301939093526002830154908201526003820154909190606083019060ff1660048111156105dd57634e487b7160e01b600052602160045260246000fd5b60048111156105fc57634e487b7160e01b600052602160045260246000fd5b815260048281015460208301526005909201546040918201526080830151835191516370a0823160e01b815230938101939093529293506001600160a01b0316906370a082319060240160206040518083038186803b15801561065e57600080fd5b505afa158015610672573d6000803e3d6000fd5b505050506040513d601f19601f8201168201806040525081019061069691906112e9565b101561070a5760405162461bcd60e51b815260206004820152603760248201527f6e6f7420656e6f75676820636f6e74726163742062616c616e636520746f207360448201527f617469736679207769746864726177207265717565737400000000000000000060648201526084016102d9565b33600090815260026020526040902080548390811061073957634e487b7160e01b600052603260045260246000fd5b6000918252602082206006919091020180546001600160a01b0319908116825560018201805490911690556002810182905560038101805460ff1916905560048082018390556005909101919091558151608083015160405163a9059cbb60e01b8152339381019390935260248301526001600160a01b03169063a9059cbb90604401602060405180830381600087803b1580156107d657600080fd5b505af11580156107ea573d6000803e3d6000fd5b505050506040513d601f19601f8201168201806040525081019061080e91906112b1565b6108525760405162461bcd60e51b81526020600482015260156024820152741d1bdad95b881d1c985b9cd9995c8819985a5b1959605a1b60448201526064016102d9565b5050565b600080600080600080869050806001600160a01b031663feaf968c6040518163ffffffff1660e01b815260040160a06040518083038186803b15801561089b57600080fd5b505afa1580156108af573d6000803e3d6000fd5b505050506040513d601f19601f820116820180604052508101906108d39190611301565b939b929a50909850965090945092505050565b6108ef85610234565b61093b5760405162461bcd60e51b815260206004820152601960248201527f746f6b656e206973206e6f74206f6e2077686974656c6973740000000000000060448201526064016102d9565b6040516323b872dd60e01b8152336004820152306024820152604481018290526001600160a01b038616906323b872dd90606401602060405180830381600087803b15801561098957600080fd5b505af115801561099d573d6000803e3d6000fd5b505050506040513d601f19601f820116820180604052508101906109c191906112b1565b610a175760405162461bcd60e51b815260206004820152602160248201527f746f6b656e207472616e7366657220746f20636f6e7472616374206661696c656044820152601960fa1b60648201526084016102d9565b60026000336001600160a01b03166001600160a01b031681526020019081526020016000206040518060c00160405280876001600160a01b03168152602001866001600160a01b031681526020018581526020018460ff166004811115610a8e57634e487b7160e01b600052602160045260246000fd5b6004811115610aad57634e487b7160e01b600052602160045260246000fd5b8152602080820185905242604092830152835460018181018655600095865294829020845160069092020180546001600160a01b039283166001600160a01b03199182161782559285015181870180549190931693169290921790559082015160028201556060820151600382018054939492939192909160ff191690836004811115610b4a57634e487b7160e01b600052602160045260246000fd5b02179055506080820151600482015560a09091015160059091015533600090815260026020908152604080832080548251818502810185019093528083529192909190849084015b82821015610c505760008481526020908190206040805160c0810182526006860290920180546001600160a01b039081168452600182015416938301939093526002830154908201526003820154909190606083019060ff166004811115610c0a57634e487b7160e01b600052602160045260246000fd5b6004811115610c2957634e487b7160e01b600052602160045260246000fd5b81526020016004820154815260200160058201548152505081526020019060010190610b92565b5050505090507fac9e6a809f911fb6291c5657eb54f815e5323b627fc3e9d696601a1c5b5731a88160018351610c869190611457565b81518110610ca457634e487b7160e01b600052603260045260246000fd5b6020026020010151604051610cb991906113e7565b60405180910390a1505050505050565b60026020528160005260406000208181548110610ce557600080fd5b60009182526020909120600690910201805460018201546002830154600384015460048501546005909501546001600160a01b0394851697509390921694509260ff9091169186565b6000546001600160a01b03163314610d585760405162461bcd60e51b81526004016102d9906113b2565b805b60018054610d689190611457565b811015610e0e576001610d7b828261143f565b81548110610d9957634e487b7160e01b600052603260045260246000fd5b600091825260209091200154600180546001600160a01b039092169183908110610dd357634e487b7160e01b600052603260045260246000fd5b600091825260209091200180546001600160a01b0319166001600160a01b039290921691909117905580610e068161146e565b915050610d5a565b5060018054610e1e908290611457565b81548110610e3c57634e487b7160e01b600052603260045260246000fd5b600091825260209091200180546001600160a01b031916905550565b6000546001600160a01b03163314610e825760405162461bcd60e51b81526004016102d9906113b2565b6001600160a01b038116610ee75760405162461bcd60e51b815260206004820152602660248201527f4f776e61626c653a206e6577206f776e657220697320746865207a65726f206160448201526564647265737360d01b60648201526084016102d9565b600080546040516001600160a01b03808516939216917f8be0079c531659141344cd1fd0a4f28419497f9722a3daafe3b4186f6b6457e091a3600080546001600160a01b0319166001600160a01b0392909216919091179055565b6001600160a01b0382166000908152600260205260408120805482919084908110610f7d57634e487b7160e01b600052603260045260246000fd5b60009182526020918290206040805160c081018252600690930290910180546001600160a01b039081168452600182015416938301939093526002830154908201526003820154909190606083019060ff166004811115610fee57634e487b7160e01b600052602160045260246000fd5b600481111561100d57634e487b7160e01b600052602160045260246000fd5b815260200160048201548152602001600582015481525050905060006110368260200151610856565b505050915050600080600481111561105e57634e487b7160e01b600052602160045260246000fd5b8360600151600481111561108257634e487b7160e01b600052602160045260246000fd5b14156110955750604082015181136111d2565b6002836060015160048111156110bb57634e487b7160e01b600052602160045260246000fd5b14156110ce5750604082015181126111d2565b6001836060015160048111156110f457634e487b7160e01b600052602160045260246000fd5b1415611108575060408201518112156111d2565b60038360600151600481111561112e57634e487b7160e01b600052602160045260246000fd5b1415611142575060408201518113156111d2565b60048360600151600481111561116857634e487b7160e01b600052602160045260246000fd5b141561117b5750604082015181146111d2565b60405162461bcd60e51b815260206004820152602660248201527f696e76616c696420636f6d70617269736f6e206f70657261746f7220696e2064604482015265195c1bdcda5d60d21b60648201526084016102d9565b95945050505050565b80356001600160a01b03811681146102aa57600080fd5b805169ffffffffffffffffffff811681146102aa57600080fd5b60006020828403121561121d578081fd5b611226826111db565b9392505050565b600080600080600060a08688031215611244578081fd5b61124d866111db565b945061125b602087016111db565b935060408601359250606086013560ff81168114611277578182fd5b949793965091946080013592915050565b6000806040838503121561129a578182fd5b6112a3836111db565b946020939093013593505050565b6000602082840312156112c2578081fd5b81518015158114611226578182fd5b6000602082840312156112e2578081fd5b5035919050565b6000602082840312156112fa578081fd5b5051919050565b600080600080600060a08688031215611318578081fd5b611321866111f2565b9450602086015193506040860151925060608601519150611344608087016111f2565b90509295509295909350565b6005811061136e57634e487b7160e01b600052602160045260246000fd5b9052565b6001600160a01b038781168252861660208201526040810185905260c0810161139e6060830186611350565b608082019390935260a00152949350505050565b6020808252818101527f4f776e61626c653a2063616c6c6572206973206e6f7420746865206f776e6572604082015260600190565b81516001600160a01b039081168252602080840151909116908201526040808301519082015260608083015160c083019161142490840182611350565b506080830151608083015260a083015160a083015292915050565b6000821982111561145257611452611489565b500190565b60008282101561146957611469611489565b500390565b600060001982141561148257611482611489565b5060010190565b634e487b7160e01b600052601160045260246000fdfea264697066735822122010221f6ee16951201a9449ae15774771f0b430f5902658769af6e91ecf29f25b64736f6c63430008030033",
  "linkReferences": {},
  "deployedLinkReferences": {}
}