{
  "_format": "hh-sol-artifact-1",
  "contractName": "ConditionalVault",
  "sourceName": "contracts/ConditionalVault.sol",
  "abi": [
    {
      "anonymous": false,
      "inputs": [
        {
          "components": [
            {
              "internalType": "address",
              "name": "tokenAddress",
              "type": "address"
            },
            {
              "internalType": "address",
              "name": "conditionOracleAddress",
              "type": "address"
            },
            {
              "internalType": "int256",
              "name": "conditionOracleValue",
              "type": "int256"
            },
            {
              "internalType": "enum ConditionalVault.ComparisonOperator",
              "name": "conditionOperator",
              "type": "uint8"
            },
            {
              "internalType": "uint256",
              "name": "amount",
              "type": "uint256"
            },
            {
              "internalType": "uint256",
              "name": "timestamp",
              "type": "uint256"
            }
          ],
          "indexed": false,
          "internalType": "struct ConditionalVault.ConditionLockedDeposit",
          "name": "conditionLockedDeposit",
          "type": "tuple"
        }
      ],
      "name": "NewConditionLockedDeposit",
      "type": "event"
    },
    {
      "anonymous": false,
      "inputs": [
        {
          "indexed": true,
          "internalType": "address",
          "name": "previousOwner",
          "type": "address"
        },
        {
          "indexed": true,
          "internalType": "address",
          "name": "newOwner",
          "type": "address"
        }
      ],
      "name": "OwnershipTransferred",
      "type": "event"
    },
    {
      "inputs": [
        {
          "internalType": "address",
          "name": "",
          "type": "address"
        },
        {
          "internalType": "uint256",
          "name": "",
          "type": "uint256"
        }
      ],
      "name": "conditionLockedDeposits",
      "outputs": [
        {
          "internalType": "address",
          "name": "tokenAddress",
          "type": "address"
        },
        {
          "internalType": "address",
          "name": "conditionOracleAddress",
          "type": "address"
        },
        {
          "internalType": "int256",
          "name": "conditionOracleValue",
          "type": "int256"
        },
        {
          "internalType": "enum ConditionalVault.ComparisonOperator",
          "name": "conditionOperator",
          "type": "uint8"
        },
        {
          "internalType": "uint256",
          "name": "amount",
          "type": "uint256"
        },
        {
          "internalType": "uint256",
          "name": "timestamp",
          "type": "uint256"
        }
      ],
      "stateMutability": "view",
      "type": "function"
    },
    {
      "inputs": [
        {
          "internalType": "address",
          "name": "_owner",
          "type": "address"
        },
        {
          "internalType": "uint256",
          "name": "_depositIndex",
          "type": "uint256"
        }
      ],
      "name": "conditionSatisfied",
      "outputs": [
        {
          "internalType": "bool",
          "name": "",
          "type": "bool"
        }
      ],
      "stateMutability": "view",
      "type": "function"
    },
    {
      "inputs": [
        {
          "internalType": "address",
          "name": "_tokenAddress",
          "type": "address"
        },
        {
          "internalType": "address",
          "name": "_conditionOracleAddress",
          "type": "address"
        },
        {
          "internalType": "int256",
          "name": "_conditionOracleValue",
          "type": "int256"
        },
        {
          "internalType": "uint8",
          "name": "_conditionOperator",
          "type": "uint8"
        },
        {
          "internalType": "uint256",
          "name": "_amount",
          "type": "uint256"
        }
      ],
      "name": "createConditionLockedDeposit",
      "outputs": [],
      "stateMutability": "nonpayable",
      "type": "function"
    },
    {
      "inputs": [
        {
          "internalType": "address",
          "name": "_priceFeed",
          "type": "address"
        }
      ],
      "name": "getLatestRoundDataFor",
      "outputs": [
        {
          "internalType": "uint80",
          "name": "roundID",
          "type": "uint80"
        },
        {
          "internalType": "int256",
          "name": "price",
          "type": "int256"
        },
        {
          "internalType": "uint256",
          "name": "startedAt",
          "type": "uint256"
        },
        {
          "internalType": "uint256",
          "name": "updatedAt",
          "type": "uint256"
        },
        {
          "internalType": "uint80",
          "name": "answeredInRound",
          "type": "uint80"
        }
      ],
      "stateMutability": "view",
      "type": "function"
    },
    {
      "inputs": [
        {
          "internalType": "address",
          "name": "_priceFeed",
          "type": "address"
        }
      ],
      "name": "getPriceFeedInterface",
      "outputs": [
        {
          "internalType": "contract AggregatorV3Interface",
          "name": "",
          "type": "address"
        }
      ],
      "stateMutability": "pure",
      "type": "function"
    },
    {
      "inputs": [
        {
          "internalType": "uint256",
          "name": "_depositIndex",
          "type": "uint256"
        }
      ],
      "name": "hardWithdrawDeposit",
      "outputs": [],
      "stateMutability": "nonpayable",
      "type": "function"
    },
    {
      "inputs": [
        {
          "internalType": "address",
          "name": "_tokenAddress",
          "type": "address"
        }
      ],
      "name": "isWhitelisted",
      "outputs": [
        {
          "internalType": "bool",
          "name": "",
          "type": "bool"
        }
      ],
      "stateMutability": "view",
      "type": "function"
    },
    {
      "inputs": [],
      "name": "owner",
      "outputs": [
        {
          "internalType": "address",
          "name": "",
          "type": "address"
        }
      ],
      "stateMutability": "view",
      "type": "function"
    },
    {
      "inputs": [
        {
          "internalType": "uint256",
          "name": "_index",
          "type": "uint256"
        }
      ],
      "name": "removeFromWhitelist",
      "outputs": [],
      "stateMutability": "nonpayable",
      "type": "function"
    },
    {
      "inputs": [],
      "name": "renounceOwnership",
      "outputs": [],
      "stateMutability": "nonpayable",
      "type": "function"
    },
    {
      "inputs": [
        {
          "internalType": "uint256",
          "name": "",
          "type": "uint256"
        }
      ],
      "name": "tokenWhitelist",
      "outputs": [
        {
          "internalType": "address",
          "name": "",
          "type": "address"
        }
      ],
      "stateMutability": "view",
      "type": "function"
    },
    {
      "inputs": [
        {
          "internalType": "address",
          "name": "newOwner",
          "type": "address"
        }
      ],
      "name": "transferOwnership",
      "outputs": [],
      "stateMutability": "nonpayable",
      "type": "function"
    },
    {
      "inputs": [
        {
          "internalType": "address",
          "name": "_tokenAddress",
          "type": "address"
        }
      ],
      "name": "whitelistToken",
      "outputs": [],
      "stateMutability": "nonpayable",
      "type": "function"
    },
    {
      "inputs": [
        {
          "internalType": "uint256",
          "name": "_depositIndex",
          "type": "uint256"
        }
      ],
      "name": "withdrawConditionLockedDeposit",
      "outputs": [],
      "stateMutability": "nonpayable",
      "type": "function"
    }
  ],
  "bytecode": "0x608060405234801561001057600080fd5b50600080546001600160a01b031916339081178255604051909182917f8be0079c531659141344cd1fd0a4f28419497f9722a3daafe3b4186f6b6457e0908290a350611631806100616000396000f3fe608060405234801561001057600080fd5b50600436106100ea5760003560e01c80637e8e4a241161008c578063ea510e2111610066578063ea510e2114610202578063f2395dc314610227578063f2fde38b1461023a578063f63d65461461024d576100ea565b80637e8e4a24146101945780638c4b7596146101de5780638da5cb5b146101f1576100ea565b80636247f6f2116100c85780636247f6f21461015357806362d4928414610166578063715018a61461017957806371dc484b14610181576100ea565b806339c2a255146100ef5780633af32abf1461010257806350cc708b1461012a575b600080fd5b6101006100fd366004611396565b50565b005b6101156101103660046112d1565b610260565b60405190151581526020015b60405180910390f35b61013b6101383660046112d1565b90565b6040516001600160a01b039091168152602001610121565b6101006101613660046112d1565b6102db565b61013b610174366004611396565b610475565b61010061049f565b61010061018f366004611396565b610513565b6101a76101a23660046112d1565b610874565b6040805169ffffffffffffffffffff968716815260208101959095528401929092526060830152909116608082015260a001610121565b6101006101ec3660046112f2565b610904565b6000546001600160a01b031661013b565b61021561021036600461134d565b610ce7565b60405161012196959493929190611482565b610100610235366004611396565b610d4c565b6101006102483660046112d1565b610e76565b61011561025b36600461134d565b610f60565b6000805b6001548110156102d057826001600160a01b03166001828154811061029957634e487b7160e01b600052603260045260246000fd5b6000918252602090912001546001600160a01b031614156102be5760019150506102d6565b806102c8816115ca565b915050610264565b50600090505b919050565b6000546001600160a01b0316331461030e5760405162461bcd60e51b81526004016103059061150e565b60405180910390fd5b61031781610260565b156103645760405162461bcd60e51b815260206004820152601960248201527f746f6b656e20616c72656164792077686974656c6973746564000000000000006044820152606401610305565b6040516370a0823160e01b81523060048201526000906001600160a01b038316906370a082319060240160206040518083038186803b1580156103a657600080fd5b505afa1580156103ba573d6000803e3d6000fd5b505050506040513d601f19601f820116820180604052508101906103de91906113ae565b10156104245760405162461bcd60e51b8152602060048201526015602482015274696e76616c696420746f6b656e206164647265737360581b6044820152606401610305565b6001805480820182556000919091527fb10e2d527612073b26eecdfd717e6a320cf44b4afac2b0732d9fcbe2b7fa0cf60180546001600160a01b0319166001600160a01b0392909216919091179055565b6001818154811061048557600080fd5b6000918252602090912001546001600160a01b0316905081565b6000546001600160a01b031633146104c95760405162461bcd60e51b81526004016103059061150e565b600080546040516001600160a01b03909116907f8be0079c531659141344cd1fd0a4f28419497f9722a3daafe3b4186f6b6457e0908390a3600080546001600160a01b0319169055565b61051d3382610f60565b6105695760405162461bcd60e51b815260206004820181905260248201527f776974686472617720636f6e646974696f6e206e6f74207361746973666965646044820152606401610305565b33600090815260026020526040812080548390811061059857634e487b7160e01b600052603260045260246000fd5b60009182526020918290206040805160c081018252600690930290910180546001600160a01b039081168452600182015416938301939093526002830154908201526003820154909190606083019060ff16600481111561060957634e487b7160e01b600052602160045260246000fd5b600481111561062857634e487b7160e01b600052602160045260246000fd5b815260200160048201548152602001600582015481525050905060026000336001600160a01b03166001600160a01b03168152602001908152602001600020828154811061068657634e487b7160e01b600052603260045260246000fd5b60009182526020808320600690920290910180546001600160a01b0319908116825560018201805490911690556002810183905560038101805460ff191690556004810183905560050191909155604080518082019091526011815270746f6b656e20616464726573733a20257360781b91810191909152815161070a91906111f9565b6107426040518060400160405280601281526020017119195c1bdcda5d08185b5bdd5b9d0e88095960721b815250826080015161123e565b61076f6040518060400160405280600b81526020016a616464726573733a20257360a81b815250306111f9565b6107a36040518060400160405280601281526020017173656e64657220616464726573733a20257360701b815250336111f9565b8051608082015160405163a9059cbb60e01b815233600482015260248101919091526001600160a01b039091169063a9059cbb90604401602060405180830381600087803b1580156107f457600080fd5b505af1158015610808573d6000803e3d6000fd5b505050506040513d601f19601f8201168201806040525081019061082c9190611376565b6108705760405162461bcd60e51b81526020600482015260156024820152741d1bdad95b881d1c985b9cd9995c8819985a5b1959605a1b6044820152606401610305565b5050565b600080600080600080869050806001600160a01b031663feaf968c6040518163ffffffff1660e01b815260040160a06040518083038186803b1580156108b957600080fd5b505afa1580156108cd573d6000803e3d6000fd5b505050506040513d601f19601f820116820180604052508101906108f191906113c6565b939b929a50909850965090945092505050565b61090d85610260565b6109595760405162461bcd60e51b815260206004820152601960248201527f746f6b656e206973206e6f74206f6e2077686974656c697374000000000000006044820152606401610305565b6040516323b872dd60e01b8152336004820152306024820152604481018290526001600160a01b038616906323b872dd90606401602060405180830381600087803b1580156109a757600080fd5b505af11580156109bb573d6000803e3d6000fd5b505050506040513d601f19601f820116820180604052508101906109df9190611376565b610a355760405162461bcd60e51b815260206004820152602160248201527f746f6b656e207472616e7366657220746f20636f6e7472616374206661696c656044820152601960fa1b6064820152608401610305565b60026000336001600160a01b03166001600160a01b031681526020019081526020016000206040518060c00160405280876001600160a01b03168152602001866001600160a01b031681526020018581526020018460ff166004811115610aac57634e487b7160e01b600052602160045260246000fd5b6004811115610acb57634e487b7160e01b600052602160045260246000fd5b8152602080820185905242604092830152835460018181018655600095865294829020845160069092020180546001600160a01b039283166001600160a01b03199182161782559285015181870180549190931693169290921790559082015160028201556060820151600382018054939492939192909160ff191690836004811115610b6857634e487b7160e01b600052602160045260246000fd5b02179055506080820151600482015560a09091015160059091015533600090815260026020908152604080832080548251818502810185019093528083529192909190849084015b82821015610c6e5760008481526020908190206040805160c0810182526006860290920180546001600160a01b039081168452600182015416938301939093526002830154908201526003820154909190606083019060ff166004811115610c2857634e487b7160e01b600052602160045260246000fd5b6004811115610c4757634e487b7160e01b600052602160045260246000fd5b81526020016004820154815260200160058201548152505081526020019060010190610bb0565b5050505090507fac9e6a809f911fb6291c5657eb54f815e5323b627fc3e9d696601a1c5b5731a88160018351610ca491906115b3565b81518110610cc257634e487b7160e01b600052603260045260246000fd5b6020026020010151604051610cd79190611543565b60405180910390a1505050505050565b60026020528160005260406000208181548110610d0357600080fd5b60009182526020909120600690910201805460018201546002830154600384015460048501546005909501546001600160a01b0394851697509390921694509260ff9091169186565b6000546001600160a01b03163314610d765760405162461bcd60e51b81526004016103059061150e565b805b60018054610d8691906115b3565b811015610e2c576001610d99828261159b565b81548110610db757634e487b7160e01b600052603260045260246000fd5b600091825260209091200154600180546001600160a01b039092169183908110610df157634e487b7160e01b600052603260045260246000fd5b600091825260209091200180546001600160a01b0319166001600160a01b039290921691909117905580610e24816115ca565b915050610d78565b5060018054610e3c9082906115b3565b81548110610e5a57634e487b7160e01b600052603260045260246000fd5b600091825260209091200180546001600160a01b031916905550565b6000546001600160a01b03163314610ea05760405162461bcd60e51b81526004016103059061150e565b6001600160a01b038116610f055760405162461bcd60e51b815260206004820152602660248201527f4f776e61626c653a206e6577206f776e657220697320746865207a65726f206160448201526564647265737360d01b6064820152608401610305565b600080546040516001600160a01b03808516939216917f8be0079c531659141344cd1fd0a4f28419497f9722a3daafe3b4186f6b6457e091a3600080546001600160a01b0319166001600160a01b0392909216919091179055565b6001600160a01b0382166000908152600260205260408120805482919084908110610f9b57634e487b7160e01b600052603260045260246000fd5b60009182526020918290206040805160c081018252600690930290910180546001600160a01b039081168452600182015416938301939093526002830154908201526003820154909190606083019060ff16600481111561100c57634e487b7160e01b600052602160045260246000fd5b600481111561102b57634e487b7160e01b600052602160045260246000fd5b815260200160048201548152602001600582015481525050905060006110548260200151610874565b505050915050600080600481111561107c57634e487b7160e01b600052602160045260246000fd5b836060015160048111156110a057634e487b7160e01b600052602160045260246000fd5b14156110b35750604082015181136111f0565b6002836060015160048111156110d957634e487b7160e01b600052602160045260246000fd5b14156110ec5750604082015181126111f0565b60018360600151600481111561111257634e487b7160e01b600052602160045260246000fd5b1415611126575060408201518112156111f0565b60038360600151600481111561114c57634e487b7160e01b600052602160045260246000fd5b1415611160575060408201518113156111f0565b60048360600151600481111561118657634e487b7160e01b600052602160045260246000fd5b14156111995750604082015181146111f0565b60405162461bcd60e51b815260206004820152602660248201527f696e76616c696420636f6d70617269736f6e206f70657261746f7220696e2064604482015265195c1bdcda5d60d21b6064820152608401610305565b95945050505050565b610870828260405160240161120f9291906114c2565b60408051601f198184030181529190526020810180516001600160e01b031663319af33360e01b17905261127f565b61087082826040516024016112549291906114ec565b60408051601f198184030181529190526020810180516001600160e01b03166309710a9d60e41b1790525b80516a636f6e736f6c652e6c6f67602083016000808483855afa5050505050565b80356001600160a01b03811681146102d657600080fd5b805169ffffffffffffffffffff811681146102d657600080fd5b6000602082840312156112e2578081fd5b6112eb826112a0565b9392505050565b600080600080600060a08688031215611309578081fd5b611312866112a0565b9450611320602087016112a0565b935060408601359250606086013560ff8116811461133c578182fd5b949793965091946080013592915050565b6000806040838503121561135f578182fd5b611368836112a0565b946020939093013593505050565b600060208284031215611387578081fd5b815180151581146112eb578182fd5b6000602082840312156113a7578081fd5b5035919050565b6000602082840312156113bf578081fd5b5051919050565b600080600080600060a086880312156113dd578081fd5b6113e6866112b7565b9450602086015193506040860151925060608601519150611409608087016112b7565b90509295509295909350565b6005811061143357634e487b7160e01b600052602160045260246000fd5b9052565b60008151808452815b8181101561145c57602081850181015186830182015201611440565b8181111561146d5782602083870101525b50601f01601f19169290920160200192915050565b6001600160a01b038781168252861660208201526040810185905260c081016114ae6060830186611415565b608082019390935260a00152949350505050565b6000604082526114d56040830185611437565b905060018060a01b03831660208301529392505050565b6000604082526114ff6040830185611437565b90508260208301529392505050565b6020808252818101527f4f776e61626c653a2063616c6c6572206973206e6f7420746865206f776e6572604082015260600190565b81516001600160a01b039081168252602080840151909116908201526040808301519082015260608083015160c083019161158090840182611415565b506080830151608083015260a083015160a083015292915050565b600082198211156115ae576115ae6115e5565b500190565b6000828210156115c5576115c56115e5565b500390565b60006000198214156115de576115de6115e5565b5060010190565b634e487b7160e01b600052601160045260246000fdfea26469706673582212207247b50ff17bf1b610f9d3744c62ac1fba8611c01377d3f8e6377170f931976964736f6c63430008030033",
  "linkReferences": {},
  "deployedLinkReferences": {}
}